:1000000080930020C9850000D7790200B5850000E3
:10001000B5850000B5850000B58500000000000032
:1000200000000000000000000000000079860000D1
:10003000B58500000000000025860000B5850000A1
:1000400031880000158B01003188000031880000E4
:1000500031880000318800003188000031880000BC
:1000600031880000318800003188000031880000AC
:10007000318800003188000031880000318800009C
:10008000318800003188000031880000318800008C
:10009000318800003188000031880000318800007C
:1000A000318800003188000031880000318800006C
:1000B000318800003188000031880000318800005C
:1000C000318800003188000031880000318800004C
:1000D000318800003188000031880000318800003C
:1000E000318800003188000031880000318800002C
:1000F000318800003188000031880000318800001C
:1001000090F800F06DE9024520F007016FF0000C57
:1001100010F0070491F820F040F049804FF00004FF
:100120006FF00700D1E9002391F840F000F10800DA
:1001300082FA4CF2A4FA8CF283FA4CF3A2FA8CF312
:100140004BBBD1E9022382FA4CF200F10800A4FA79
:100150008CF283FA4CF3A2FA8CF3E3B9D1E90423CD
:1001600082FA4CF200F10800A4FA8CF283FA4CF304
:10017000A2FA8CF37BB9D1E9062301F1200182FABE
:100180004CF200F10800A4FA8CF283FA4CF3A2FAC4
:100190008CF3002BC6D0002A04BF04301A4612BAD2
:1001A000B2FA82F2FDE8024500EBD2007047D1E9D5
:1001B000002304F00305C4F100004FEAC50514F064
:1001C000040F91F840F00CFA05F562EA05021CBF35
:1001D00063EA050362464FF00004A9E7000000004F
:1001E00001F0FF01102A2BDB10F0070F08D010F8E8
:1001F000013B013A8B422DD010F0070F42B3F6D1EC
:10020000F0B441EA012141EA014122F007047FF004
:1002100000070023F0E80256083C85EA010586EA5B
:10022000010685FA47F5A3FA87F586FA47F6A5FA97
:1002300087F68EB9EED1F0BC01F0FF0102F00702A3
:1002400032B110F8013B013A83EA010313B1F8D14E
:100250000020704701387047002D06BF354603382F
:10026000073815F0010F07D1013015F4807F02BF68
:10027000013015F4C03F0130F0BC0138704700BFB9
:10028000844641EA000313F003036DD1403A41D3A1
:1002900051F8043B40F8043B51F8043B40F8043B60
:1002A00051F8043B40F8043B51F8043B40F8043B50
:1002B00051F8043B40F8043B51F8043B40F8043B40
:1002C00051F8043B40F8043B51F8043B40F8043B30
:1002D00051F8043B40F8043B51F8043B40F8043B20
:1002E00051F8043B40F8043B51F8043B40F8043B10
:1002F00051F8043B40F8043B51F8043B40F8043B00
:1003000051F8043B40F8043B51F8043B40F8043BEF
:10031000403ABDD2303211D351F8043B40F8043B8F
:1003200051F8043B40F8043B51F8043B40F8043BCF
:1003300051F8043B40F8043B103AEDD20C3205D39F
:1003400051F8043B40F8043B043AF9D2043208D097
:10035000D2071CBF11F8013B00F8013B01D30B8809
:1003600003806046704700BF082A13D38B078DD0E7
:1003700010F003038AD0C3F10403D21ADB071CBFB9
:1003800011F8013B00F8013B80D331F8023B20F823
:10039000023B7BE7043AD9D3013A11F8013B00F85C
:1003A000013BF9D20B7803704B7843708B788370E4
:1003B0006046704781F0004102E000BF83F00043D7
:1003C00030B54FEA41044FEA430594EA050F08BFF0
:1003D00090EA020F1FBF54EA000C55EA020C7FEAB4
:1003E000645C7FEA655C00F0E2804FEA5454D4EB31
:1003F0005555B8BF6D420CDD2C4480EA020281EAFB
:10040000030382EA000083EA010180EA020281EA32
:100410000303362D88BF30BD11F0004F4FEA013184
:100420004FF4801C4CEA113102D0404261EB410193
:1004300013F0004F4FEA03334CEA133302D0524219
:1004400063EB430394EA050F00F0A780A4F10104D5
:10045000D5F1200E0DDB02FA0EFC22FA05F280180F
:1004600041F1000103FA0EF2801843FA05F35941F5
:100470000EE0A5F120050EF1200E012A03FA0EFC74
:1004800028BF4CF0020C43FA05F3C01851EBE3719E
:1004900001F0004507D54FF0000EDCF1000C7EEBBB
:1004A00000006EEB0101B1F5801F1BD3B1F5001FF9
:1004B0000CD349085FEA30004FEA3C0C04F1010418
:1004C0004FEA445212F5800F80F09A80BCF1004F41
:1004D00008BF5FEA500C50F1000041EB045141EAC3
:1004E000050130BD5FEA4C0C404141EB0101013C8C
:1004F00028BFB1F5801FE9D291F0000F04BF01467B
:100500000020B1FA81F308BF2033A3F10B03B3F14C
:1005100020020CDA0C3208DD02F1140CC2F10C02DC
:1005200001FA0CF021FA02F10CE002F11402D8BF3A
:10053000C2F1200C01FA02F120FA0CFCDCBF41EA06
:100540000C019040E41AA2BF01EB0451294330BDD5
:100550006FEA04041F3C1CDA0C340EDC04F11404B2
:10056000C4F1200220FA04F001FA02F340EA030089
:1005700021FA04F345EA030130BDC4F10C04C4F1CF
:10058000200220FA02F001FA04F340EA03002946AF
:1005900030BD21FA04F0294630BD94F0000F83F4F9
:1005A000801306BF81F480110134013D4EE77FEADC
:1005B000645C18BF7FEA655C29D094EA050F08BF28
:1005C00090EA020F05D054EA000C04BF1946104609
:1005D00030BD91EA030F1EBF0021002030BD5FEA4D
:1005E000545C05D14000494128BF41F0004130BD75
:1005F00014F580043CBF01F5801130BD01F00045C9
:1006000045F0FE4141F470014FF0000030BD7FEA3B
:10061000645C1ABF194610467FEA655C1CBF0B4636
:10062000024650EA013406BF52EA033591EA030F4D
:1006300041F4002130BD00BF90F0000F04BF002145
:10064000704730B54FF4806404F132044FF0000578
:100650004FF0000150E700BF90F0000F04BF0021F1
:10066000704730B54FF4806404F1320410F0004557
:1006700048BF40424FF000013EE700BF42004FEA52
:10068000E2014FEA31014FEA02701FBF12F07F43CF
:1006900093F07F4F81F06051704732F07F4208BF86
:1006A000704793F07F4F04BF41F40021704730B58D
:1006B0004FF4607401F0004521F000411CE700BFD9
:1006C00050EA010208BF704730B54FF000050AE05C
:1006D00050EA010208BF704730B511F0004502D55D
:1006E000404261EB41014FF4806404F132045FEA5F
:1006F000915C3FF4D8AE4FF003025FEADC0C18BF08
:1007000003325FEADC0C18BF033202EBDC02C2F1F9
:10071000200300FA03FC20FA02F001FA03FE40EA8B
:100720000E0021FA02F11444BDE600BF70B54FF08F
:10073000FF0C4CF4E06C1CEA11541DBF1CEA13556D
:1007400094EA0C0F95EA0C0F00F0DEF82C4481EAD5
:10075000030621EA4C5123EA4C5350EA013518BFF5
:1007600052EA033541F4801143F4801338D0A0FBE2
:1007700002CE4FF00005E1FB02E506F00042E0FB8F
:1007800003E54FF00006E1FB03569CF0000F18BF95
:100790004EF0010EA4F1FF04B6F5007F64F540743D
:1007A00004D25FEA4E0E6D4146EB060642EAC621D0
:1007B00041EA55514FEAC52040EA5E504FEACE2E3D
:1007C000B4F1FD0C88BFBCF5E06F1ED8BEF1004F40
:1007D00008BF5FEA500E50F1000041EB045170BDBC
:1007E00006F0004646EA010140EA020081EA030100
:1007F000B4EB5C04C2BFD4EB0C0541EA045170BDFC
:1008000041F480114FF0000E013C00F3AB8014F175
:10081000360FDEBF002001F0004170BDC4F10004BE
:10082000203C35DA0C341BDC04F11404C4F120053F
:1008300000FA05F320FA04F001FA05F240EA02009A
:1008400001F0004221F0004110EBD37021FA04F6D0
:1008500042EB06015EEA430E08BF20EAD37070BD8A
:10086000C4F10C04C4F1200500FA04F320FA05F0E9
:1008700001FA04F240EA020001F0004110EBD370EB
:1008800041F100015EEA430E08BF20EAD37070BD5B
:10089000C4F1200500FA05F24EEA020E20FA04F334
:1008A00001FA05F243EA020321FA04F001F00041E3
:1008B00021FA04F220EA020000EBD3705EEA430E54
:1008C00008BF20EAD37070BD94F0000F0FD101F083
:1008D0000046400041EB010111F4801F08BF013CBC
:1008E000F7D041EA060195F0000F18BF704703F0FA
:1008F0000046520043EB030313F4801F08BF013D81
:10090000F7D043EA0603704794EA0C0F0CEA13553C
:1009100018BF95EA0C0F0CD050EA410618BF52EAF6
:100920004306D1D181EA030101F000414FF00000FC
:1009300070BD50EA410606BF1046194652EA43060A
:1009400019D094EA0C0F02D150EA013613D195EA7E
:100950000C0F05D152EA03361CBF104619460AD1C6
:1009600081EA030101F0004141F0FE4141F47001D0
:100970004FF0000070BD41F0FE4141F4780170BDC0
:1009800070B54FF0FF0C4CF4E06C1CEA11541DBF25
:100990001CEA135594EA0C0F95EA0C0F00F0A7F827
:1009A000A4EB050481EA030E52EA03354FEA013154
:1009B00000F088804FEA03334FF0805545EA131367
:1009C00043EA12634FEA022245EA111545EA10652F
:1009D0004FEA00260EF000419D4208BF964244F1C6
:1009E000FD0404F5407402D25B084FEA3202B61AE5
:1009F00065EB03055B084FEA32024FF480104FF4B9
:100A0000002CB6EB020E75EB030E22BFB61A75462C
:100A100040EA0C005B084FEA3202B6EB020E75EBBF
:100A2000030E22BFB61A754640EA5C005B084FEA27
:100A30003202B6EB020E75EB030E22BFB61A7546F4
:100A400040EA9C005B084FEA3202B6EB020E75EBFF
:100A5000030E22BFB61A754640EADC0055EA060EC0
:100A600018D04FEA051545EA16754FEA06164FEA03
:100A7000C30343EA52734FEAC2025FEA1C1CC0D1AF
:100A800011F4801F0BD141EA00014FF000004FF03C
:100A9000004CB6E711F4801F04BF01430020B4F1FD
:100AA000FD0C88BFBCF5E06F3FF6AFAEB5EB030CB5
:100AB00004BFB6EB020C5FEA500C50F1000041EBB2
:100AC000045170BD0EF0004E4EEA113114EB5C047F
:100AD000C2BFD4EB0C0541EA045170BD41F4801152
:100AE0004FF0000E013C90E645EA060E8DE60CEA5A
:100AF000135594EA0C0F08BF95EA0C0F3FF43BAF77
:100B000094EA0C0F0AD150EA01347FF434AF95EA2D
:100B10000C0F7FF425AF104619462CE795EA0C0F11
:100B200006D152EA03353FF4FDAE1046194622E7DE
:100B300050EA410618BF52EA43067FF4C5AE50EAB8
:100B400041047FF40DAF52EA43057FF4EBAE12E7A8
:100B50004FF0FF3C06E000BF4FF0010C02E000BF89
:100B60004FF0010C4DF804CD4FEA410C7FEA6C5C6C
:100B70004FEA430C18BF7FEA6C5C1BD001B050EA0F
:100B8000410C0CBF52EA430C91EA030F02BF90EAFA
:100B9000020F0020704710F1000F91EA030F58BFB9
:100BA000994208BF90422CBFD8176FEAE37040F01B
:100BB000010070474FEA410C7FEA6C5C02D150EAB9
:100BC000013C07D14FEA430C7FEA6C5CD6D152EA74
:100BD000033CD3D05DF8040B704700BF8446104639
:100BE00062468C461946634600E000BF01B5FFF738
:100BF000B7FF002848BF10F1000F01BD4DF808ED08
:100C0000FFF7F4FF0CBF012000205DF808FB00BFD8
:100C10004DF808EDFFF7EAFF34BF012000205DF832
:100C200008FB00BF4DF808EDFFF7E0FF94BF01207F
:100C300000205DF808FB00BF4DF808EDFFF7CEFF80
:100C400094BF012000205DF808FB00BF4DF808EDBF
:100C5000FFF7C4FF34BF012000205DF808FB00BF90
:100C60004FEA410C7FEA6C5C02D150EA013C0AD1A8
:100C70004FEA430C7FEA6C5C02D152EA033C02D19A
:100C80004FF0000070474FF0010070474FEA4102FB
:100C900012F5001215D211D56FF47873B3EB6252CE
:100CA00012D94FEAC12343F0004343EA505311F0F5
:100CB000004F23FA02F018BF404270474FF0000087
:100CC000704750EA013005D111F0004008BF6FF0C5
:100CD000004070474FF00000704700BF4FEA4102EC
:100CE000B2F1E04324BFB3F5001CDCF1FE5C0DD98A
:100CF00001F0004C4FEAC0024CEA5070B2F1004FD4
:100D000040EB830008BF20F00100704711F0804FD6
:100D100021D113F13872BCBF01F00040704741F49B
:100D200080114FEA5252C2F11802C2F1200C10FA9F
:100D30000CF320FA02F018BF40F001004FEAC12383
:100D40004FEAD32303FA0CFC40EA0C0023FA02F327
:100D50004FEA4303CCE77FEA625307D150EA0133FD
:100D60001EBF4FF0FE4040F44000704701F00040CD
:100D700040F0FE4040F40000704700BF80F00040AB
:100D800002E000BF81F0004142001FBF5FEA410363
:100D900092EA030F7FEA226C7FEA236C6AD04FEA63
:100DA0001262D2EB1363C1BFD218414048404140A8
:100DB000B8BF5B42192B88BF704710F0004F40F45A
:100DC000000020F07F4018BF404211F0004F41F476
:100DD000000121F07F4118BF494292EA030F3FD042
:100DE000A2F1010241FA03FC10EB0C00C3F1200355
:100DF00001FA03F100F0004302D5494260EB4000E4
:100E0000B0F5000F13D3B0F1807F06D340084FEA4E
:100E1000310102F10102FE2A51D2B1F1004F40EB43
:100E2000C25008BF20F0010040EA030070474900AB
:100E300040EB0000013A28BFB0F5000FEDD2B0FA48
:100E400080FCACF1080CB2EB0C0200FA0CF0AABF6B
:100E500000EBC25052421843BCBFD0401843704709
:100E600092F0000F81F4000106BF80F4000001320F
:100E7000013BB5E74FEA41037FEA226C18BF7FEAE6
:100E8000236C21D092EA030F04D092F0000F08BF28
:100E90000846704790EA010F1CBF0020704712F00F
:100EA0007F4F04D1400028BF40F00040704712F14E
:100EB00000723CBF00F50000704700F0004343F0B3
:100EC000FE4040F4000070477FEA226216BF0846E9
:100ED0007FEA23630146420206BF5FEA412390EAAC
:100EE000010F40F4800070474FF0000304E000BFA2
:100EF00010F0004348BF40425FEA000C08BF704753
:100F000043F0964301464FF000001CE050EA010216
:100F100008BF70474FF000030AE000BF50EA01022B
:100F200008BF704711F0004302D5404261EB410118
:100F30005FEA010C02BF84460146002043F0B6433D
:100F400008BFA3F18053A3F50003BCFA8CF2083A62
:100F5000A3EBC25310DB01FA02FC634400FA02FC6B
:100F6000C2F12002BCF1004F20FA02F243EB020072
:100F700008BF20F00100704702F1200201FA02FCD4
:100F8000C2F1200250EA4C0021FA02F243EB0200C7
:100F900008BF20EADC7070474FF0FF0C1CEAD0520B
:100FA0001EBF1CEAD15392EA0C0F93EA0C0F6FD0CC
:100FB0001A4480EA010C400218BF5FEA41211ED0AA
:100FC0004FF0006343EA501043EA5111A0FB013196
:100FD0000CF00040B1F5000F3EBF490041EAD3716B
:100FE0005B0040EA010062F17F02FD2A1DD8B3F1E7
:100FF000004F40EBC25008BF20F00100704790F056
:10100000000F0CF0004C08BF49024CEA502040EAA7
:1010100051207F3AC2BFD2F1FF0340EAC25070476D
:1010200040F400004FF00003013A5DDC12F1190FAB
:10103000DCBF00F000407047C2F10002410021FA1D
:1010400002F1C2F1200200FA02FC5FEA310040F135
:10105000000053EA4C0308BF20EADC70704792F0AE
:10106000000F00F0004C02BF400010F4000F013AE6
:10107000F9D040EA0C0093F0000F01F0004C02BFE1
:10108000490011F4000F013BF9D041EA0C018FE750
:101090000CEAD15392EA0C0F18BF93EA0C0F0AD056
:1010A00030F0004C18BF31F0004CD8D180EA01007C
:1010B00000F00040704790F0000F17BF90F0004F15
:1010C000084691F0000F91F0004F14D092EA0C0FF7
:1010D00001D142020FD193EA0C0F03D14B0218BF8A
:1010E000084608D180EA010000F0004040F0FE40D0
:1010F00040F40000704740F0FE4040F4400070476C
:101100004FF0FF0C1CEAD0521EBF1CEAD15392EAEA
:101110000C0F93EA0C0F69D0A2EB030280EA010CDA
:1011200049024FEA402037D04FF0805343EA111173
:1011300043EA10130CF000408B4238BF5B0042F1D1
:101140007D024FF4000C8B4224BF5B1A40EA0C0076
:10115000B3EB510F24BFA3EB510340EA5C00B3EBA8
:10116000910F24BFA3EB910340EA9C00B3EBD10F96
:1011700024BFA3EBD10340EADC001B0118BF5FEAE8
:101180001C1CE0D1FD2A3FF650AF8B4240EBC25011
:1011900008BF20F0010070470CF0004C4CEA5020D2
:1011A0007F32C2BFD2F1FF0340EAC250704740F421
:1011B00000004FF00003013A37E792F0000F00F013
:1011C000004C02BF400010F4000F013AF9D040EA91
:1011D0000C0093F0000F01F0004C02BF490011F425
:1011E000000F013BF9D041EA0C0195E70CEAD1531D
:1011F00092EA0C0F08D142027FF47DAF93EA0C0F04
:101200007FF470AF084676E793EA0C0F04D14B02E7
:101210003FF44CAF08466EE730F0004C18BF31F099
:10122000004CCAD130F000427FF45CAF31F0004393
:101230007FF43CAF5FE700BF4FF0FF3C06E000BF2C
:101240004FF0010C02E000BF4FF0010C4DF804CD4F
:101250004FEA40024FEA41037FEA226C18BF7FEA5F
:10126000236C11D001B052EA530C18BF90EA010F61
:1012700058BFB2EB030088BFC81738BF6FEAE170F0
:1012800018BF40F0010070477FEA226C02D15FEA8C
:10129000402C05D17FEA236CE4D15FEA412CE1D0F8
:1012A0005DF8040B704700BF844608466146FFE7BF
:1012B0000FB5FFF7C9FF002848BF10F1000F0FBDA1
:1012C0004DF808EDFFF7F4FF0CBF012000205DF89A
:1012D00008FB00BF4DF808EDFFF7EAFF34BF01201F
:1012E00000205DF808FB00BF4DF808EDFFF7E0FFB8
:1012F00094BF012000205DF808FB00BF4DF808ED09
:10130000FFF7D2FF94BF012000205DF808FB00BF6B
:101310004DF808EDFFF7C8FF34BF012000205DF84D
:1013200008FB00BF4FEA4002B2F1FE4F0FD34FF06F
:101330009E03B3EB12620DD94FEA002343F0004342
:1013400010F0004F23FA02F018BF404270474FF0F0
:101350000000704712F1610F01D1420205D110F077
:10136000004008BF6FF0004070474FF0000070472A
:1013700042000ED2B2F1FE4F0BD34FF09E03B3EBFF
:10138000126209D44FEA002343F0004323FA02F02B
:1013900070474FF00000704712F1610F01D1420217
:1013A00002D14FF0FF3070474FF00000704700BF90
:1013B00053B94AB9002908BF00281CBF4FF0FF31BC
:1013C0004FF0FF3000F00CB8ADF1080C6DE904CE21
:1013D00000F008F8DDF804E0DDE9022304B070470E
:1013E000704700BF2DE9F04786468C460846089EA8
:1013F000154674461946002B40F0C2808542B2FA69
:1014000082F245D94AB1C2F1200300FA02FC2EFA59
:1014100003F3954043EA0C0C94404FEA154EA8B2F2
:10142000BCFBFEF8230C0EFB18CC08FB00F943EACA
:101430000C43994528D9EB1808F1FF3704D2994598
:1014400002D9A8F102072B44A3EB0903A4B2B3FB12
:10145000FEFC0EFB1C330CFB00F044EA0344A042EC
:1014600014D92C190CF1FF3304D2A04202D9ACF1EB
:1014700002032C44241A43EA07401EB1D44000233F
:1014800034607360BDE8F0874746DDE76346F1E707
:1014900092BB431B01214FEA154EAFB2B3FBFEFCDA
:1014A000200C0EFB1C330CFB07F840EA0343984565
:1014B00062D9EB180CF1FF3004D2984502D9ACF197
:1014C00002002B44A3EB0803A4B2B3FBFEFC0EFB0B
:1014D0001C330CFB07F744EA0344A7424ED92C19EE
:1014E0000CF1FF3304D2A74202D9ACF102032C4421
:1014F000E41B43EA0040C0E7C2F1200320FA03F1F5
:10150000954090402EFA03F303434FEA154EAFB2D5
:10151000B1FBFEFC0EFB1C10190C0CFB07F841EA9A
:101520000041884504FA02F422D969180CF1FF3011
:1015300004D2884502D9ACF102002944A1EB08018C
:101540009BB2B1FBFEFC0EFB1C110CFB07F743EA40
:1015500001439F420ED9EB180CF1FF3104D29F4298
:1015600002D9ACF102012B44DB1B41EA004192E7B6
:101570006046E3E76146F7E76046A3E76346B7E7FF
:10158000834206D916B9002108467BE7C6E900E088
:10159000F9E7B3FA83F78FB9834201D3724508D8CC
:1015A000BEEB020460EB030301209C461EB9002140
:1015B00068E73846FAE7C6E9004CF8E7C7F1200CBF
:1015C000BB4022FA0CF41C432EFA0CF120FA0CF367
:1015D000B84001434FEA14490EFA07F5B3FBF9F896
:1015E0001FFA84FE09FB18300B0C08FB0EFA43EAC5
:1015F00000439A4502FA07F240D9E31808F1FF3098
:1016000004D29A4502D9A8F102002344A3EB0A03AD
:1016100089B2B3FBF9F809FB183308FB0EFE41EA67
:1016200003418E452CD9611808F1FF3304D28E4551
:1016300002D9A8F10203214443EA0040A0FB02982A
:10164000A1EB0E014145CE46434602D306D14D459E
:1016500004D2B9EB020E68EB04030138002EA6D0C9
:10166000B5EB0E0261EB030101FA0CFC22FA07F361
:101670004CEA0303F940C6E9003198E74046C5E764
:101680004346D9E7000000002DE9F04F89B00590EE
:10169000274EB368039306AA5B680021304698473B
:1016A00000283EDBDDE9064A224BDFF88C80A4FBF4
:1016B00003B203FB0A23049304991BA3D3E9002379
:1016C0005846FFF775FE4FF0FF39049BD94578EB7C
:1016D00003034FF00007054623D3059BB4214FF4C5
:1016E0007A7213FB01F35343B3FBF1F313445343F7
:1016F000A3FB04B403FB0A4421460BA3D3E9002354
:101700005846FFF755FED94578EB0404034608D345
:10171000854206D3039A0097146839462A46304614
:10172000A04709B0BDE8F08F00CA9A3B0000000056
:10173000C8A50200002D3101FFC99A3B000000003E
:101740002DE9F34118A5D5E90045194FDFF864806C
:10175000002603F05DF803F073F8FEF76DFF2246F4
:101760002B46FEF7E3FF32463B46FEF7DFFFFFF76F
:10177000B5FA4146FFF7C4FC00900F48C268036AFF
:101780009A4204D10022002301A91EF019FE002272
:101790000023694608481EF0B5FD00214FF4804043
:1017A00028F011FDD5E700BF006F8104C58FA13F70
:1017B0000000E03F000048428813002000000000C5
:1017C0002DE9F843D0E90738856903EB08042F3485
:1017D000A5420F46164619D8DFF86C80A3FB080116
:1017E00017A3D3E90023FFF7E3FD0346601BA0FB2B
:1017F000080123F07F4412A3D3E90023FFF7D8FDAB
:1018000020F07F403C603060BDE8F883DFF838901E
:101810000BA3D3E90023A5FB0901FFF7C9FD20F0C5
:101820007F440A480A2106A3D3E90023E8FB090103
:10183000FFF7BEFD20F07F403C603060BDE8F883DC
:101840008D49FD1A0700000000CA9A3B00166BF193
:10185000002800F037812DE9F04FC54C94F86A302C
:10186000DA078DB000F1688194F8292094F83530BA
:1018700004EB820204EB8303D66A9F6B0EB33546FA
:1018800015F8020BC0F380100EF08CFC0368C6F84C
:1018900002308388AB8033785B0606D50621284664
:1018A0000CF0EAFF002800F049813D4615F8020BD4
:1018B000C0F380100EF076FC0368C7F8023083880E
:1018C000AB80337813F00E0F40F08E80236A1BB18B
:1018D0000C200DB0BDE8F08F0FF006FB814600280C
:1018E00000F039810FF00CFB8246002800F03081B7
:1018F00012F028FA0546002800F02F81806F4FF67D
:10190000FF732B8605F11C0B002800F01D8105F1EB
:101910006C0205F168010CF0BBFFB5F8643023F4EC
:10192000EF6323F0070343F48C7343F00103A5F83E
:10193000643095F8433003F03F0363F07F0385F88C
:10194000433095F87E3023F0070385F87E3095F814
:10195000483023F00F034FF0000885F848304FF46B
:10196000C023C5F878312846C5E91588C5F87880C0
:10197000A5F87C8085F84580A5F83680C5F83A80C2
:10198000C5F85C80A5F87E81A5F8748114F02EF866
:1019900085F84081C5F8449112F03AFC95F88431FD
:1019A00060F3020385F8843112F038FC95F8843135
:1019B00060F3C50385F8843195F8703168F341030D
:1019C00085F8703105F1C40013F002FEC4E9189ADD
:1019D000C4F820B0C5E9058885F80080ED6117F0EE
:1019E000D7FE002840F0AC8094F824300121C3F3E6
:1019F00042030DF12B008DF82B300DF0E5F8024677
:101A0000002861D07978304611F0AEFB3123594976
:101A1000A360594BB4F86870A0FB01010025C01801
:101A200041F1070150A3D3E90023C4E9055525700E
:101A30006560E560FFF7BCFC20610EF071FB00F112
:101A400009083FB9357805F00F05A5F10105B5FA8C
:101A500085F56D0994F82400236965F3000010F002
:101A6000010584F8240036D0444A09920020106011
:101A70000225434A434F04930BAE01930592032181
:101A8000CDE90200069443460090089607972A463F
:101A90000B950EF047FA31460FF0BAFAA0B93A4961
:101AA00005914AF2D8330093CDE90300CDE9010056
:101AB0000797089606944346012203210B950EF0E2
:101AC00015FA2EE011F0A2BA236A002B3FF400AF02
:101AD00011F058FAFCE6294A2C48049303F2471304
:101AE0000694029591211360A7FB000301FB0731C7
:101AF000244B0793224B05934FF6FF73099202275D
:101B000003930BAE18A3D3E900230B970896FFF7B6
:101B10004FFC4346CDE900503A46284603210EF0DB
:101B200001FA31460FF074FA0028CDD194F86A30EA
:101B300043F0010384F86A300020CAE61220C8E6A8
:101B400011F020FA0320C4E605F17000A867DEE674
:101B500048460FF0CFF90720BBE650460FF0D6F904
:101B600048460FF0C7F9F6E78D49FD1A0700000057
:101B70008436002000CA9A3B8C49FD1A7836002032
:101B8000E5310100BD020100E92C0100002AE784D3
:101B900070B590F824308AB0C3F342030D46044672
:101BA00001210DF1230016468DF823300DF00CF8BD
:101BB00071780246284611F0D7FA1F491F4AA0FB48
:101BC0000131981841F1070119A3D3E90023FFF768
:101BD000EFFB23699842054622D21B1A002201928C
:101BE000174A02930221174B0991A21ACA40A3FB7C
:101BF0000232D20800230A4409AE13490591CDE907
:101C000003330321D2B20696009318460EF0EAF988
:101C100031460FF0FDF938B9256100200AB070BDDA
:101C2000FBD9C21A0023DAE70C200AB070BD00BF4E
:101C30008D49FD1A0700000000CA9A3B8C49FD1A25
:101C400084360020F712DA4BBD02010000000000CC
:101C500038B5194C9DF810E094F834C01CF001051B
:101C600023D163F3420C400194F8203021854FEAE0
:101C7000CE0E0EF0180E00F0200040EA0E0023F009
:101C8000380303430D4884F820309121A2FB000360
:101C900084F834C001FB023105A3D3E90023FFF728
:101CA00087FBE0622063284638BD0C25284638BDF6
:101CB0008D49FD1A07000000A0220020002AE784B9
:101CC0002DE9F04F044600F1210190F8340094F81A
:101CD0002030454DDFF814A1C0F3400060F38613B7
:101CE0008DB084F820300EF06DFA94F82020238D0A
:101CF0003F48E46102F07902002784F82020912116
:101D0000A3FB0002C4E90577277001FB032134A37C
:101D1000D3E90023FFF74CFB651B226B354B676053
:101D2000ED08A3FB053502F109039842EDB298BF17
:101D30003A4605EB450B8CBF19460146E2624FEA75
:101D40008B0B3122A260E76021614AF80B10064636
:101D50000EF0E6F9B8460DF12C090AEB0B030993D6
:101D6000CDF820900694CDF80C80238D00F1090762
:101D70001F489121A3FB000201FB03212369049367
:101D80001D4B07931D4B059302230B9314A3D3E91B
:101D90000023FFF70DFB104619464FF47A7200231B
:101DA000FFF706FB0435EDB2CDE9016003213B46A8
:101DB0002A46CDF8008040460EF0B4F849460FF0B0
:101DC00027F940B994F8343043F0010384F83430F3
:101DD0000DB0BDE8F08F0C200DB0BDE8F08F00BF56
:101DE0008D49FD1A07000000A022002008370020BE
:101DF000002AE78425499224BD02010065370100CD
:101E00002DE9F04F06468DB08A4601200221994601
:101E1000154619F073FE00220B90022101200CF0F0
:101E200087FD3B494FF4C47230460CF011FD471D4D
:101E3000384B0093FFB201964B463A4601210020F1
:101E40000EF02AF910F0FD0F0ED0334A3349344812
:101E500040F68F0324F09FFE002383F31188BFF325
:101E60006F8F0323184602DF2E4CA5FB044526A3E3
:101E7000D3E9002320462946FFF79AFA08960696EA
:101E800033690493284B20F07F48A8FB0331E01A04
:101E9000264B07934FF00702254B059302FB0811D1
:101EA0004FF6FE7365EB010103934FF47A72002342
:101EB000FFF77EFA4FF0000BCDE90180CDF800A0CE
:101EC0004B463A46012158460EF010F810F0FD0F2F
:101ED0000DD0114A1149124840F6A40324F05BFECC
:101EE0008BF31188BFF36F8F0323184602DF0B9B20
:101EF00013B90DB0BDE8F08F0122022110460DB0DC
:101F0000BDE8F04F0CF014BD8D49FD1A070000002C
:101F1000D8220020E53C0100BCB7020080B80200D6
:101F20007CB0020000CA9A3B8D49FD1A853C010035
:101F3000FD870100000000002DE9F0418468228E39
:101F40004FF6FF739A428CB045D00546204613F0F9
:101F5000C1FF2B7D012B00F03B81022B00F02E8175
:101F6000002B00F00D8194F84061002E40F0298193
:101F70002B8A678F94F94320CDE90A6673B3002A50
:101F8000C0F273810023A4F87A31AA7C238FFD1854
:101F900002F003030135012BADB23BD0B4F87E3122
:101FA000002B00F01E819D4280F072815B1B9BB272
:101FB0000022062BA4F87E31628740F20F8194F94B
:101FC00043309342C0F26981002326E09DF8271038
:101FD000204612F001FA0CB0BDE8F081002AB8BF2B
:101FE00084F86561238FAA7CFD1802F00303013594
:101FF000012BADB20ED0B4F87A31002BCED0AB426B
:1020000040F255815B1BA4F87A31B4F87E31002B85
:10201000C9D102E00023A4F87E3194F8482063F38C
:10202000820284F8482029460DF12702204613F049
:1020300019FD7430CAD0B4F878312BB1AB4240F2FC
:1020400005815B1BA4F87831B4F874312BB1AB4235
:1020500040F2F3805B1BA4F87431658F16B9AF4270
:1020600000F0E2800135ADB294F8C13013F0010701
:1020700031D1DDE90A130A46002B40F0E580002942
:1020800000F0D4801F461846228EE4690694CDE9FC
:1020900003560532A64D0290CDE90017D2B20121B8
:1020A000002005950DF09EFF10F0FD0F93D00EF06F
:1020B000D9FF84428FD09F4A9F49A0484FF4AE6316
:1020C00024F069FD002383F31188BFF36F8F03238E
:1020D000184602DF7FE794F943206FF30003002ADC
:1020E00084F8C130C0F2988094F86400C0F3C00155
:1020F00000F0070017F068F994F8642094F8653050
:1021000002F003012831C2F34002C900D14003F0BC
:1021100003022832C3F34003D200DA40638D03F296
:102120003F13B1F5A07F2CBF5B1803F5A073B2F588
:10213000A07F2CBF9B1803F5A0730344804A8148FD
:102140000721E3FB0021104677A3D3E90023FFF723
:102150002FF9DDE90A1320F07F42206922619042C5
:1021600035BF171A801A002000270A46002B8BD192
:1021700057EA010C88D1002858D019461F4683E73A
:1021800094F87E3003F01803182B7FF4ECAEA18E88
:10219000B4F876218B1D9A42C4BF931F5B1AB4F822
:1021A0007211CCBF9BB21346994200F09C80A4F8F8
:1021B0007231A4F87431A4F87821D4E63D2684F86D
:1021C0004061314620460CB0BDE8F04112F004B940
:1021D0000023A4F87831A4F87431C4E6012633460C
:1021E0001BE7628E052A97BF013240F2E2434FF4AB
:1021F000FA7392B203FB02F2B4F87C3142F210712E
:1022000001FB0323013BB3FBF2F39BB2A4F87E3145
:10221000002B7FF4C8AE00E794F86500012100F0C0
:10222000070017F0D3F867E735461DE7002D43D0C8
:102230000027114638463B4626E70023A4F87431B0
:10224000204613F0B1FC08E738461DE70EF09EFE6D
:102250000146A0B30023A4F87831238EC3801B234A
:10226000037100680EF064FEEEE694F865316BB31E
:10227000013B84F8653104F1C408404613F0EAF9E3
:10228000B8B3404613F0E6F9B8B30023638779E6A4
:102290000821204612F0A0F89DE6A7B9D4F86831CD
:1022A0005A0813F0010336D1C4F868218CE63E21A8
:1022B000204612F091F88EE6002EB9D18BE601236C
:1022C000A4F87831C0E613460126A6E60AAA0BA9AF
:1022D0002846FFF775FADDE90A231343CBD02378AC
:1022E00084F86531C7E7B4F8781100297FF43BAE74
:1022F0005FE7FF2012F032F8C3E70246D4E91A0183
:102300000CF0DEFA0028C0D194F848301B0744BF17
:10231000A38E638736E642F000421E46C4F8682169
:102320003B467AE6AFF300808D49FD1A07000000B6
:10233000413C0100BCB70200CCB802007CB00200F6
:102340008C49FD1A00CA9A3B2DE9F04F87B0CDE9C0
:102350000423BDF8442003780292BDF84820BDF85C
:1023600040A0BDF84C90878F019104460392002B4A
:1023700000F0F380013FBFB2A368D4F8FCB0A7EB34
:10238000090292B2002B00920ADAE168626823F037
:10239000004391422CBF8B449344A360ABEB030BEF
:1023A00094F86400C0F3C00100F0070017F00CF8C7
:1023B000B4F83280B8F1050F40F2C580009B18FBDD
:1023C00003F81FFA88F840F2E246BAF1050F40F22E
:1023D000AE8094F8652094F8641002F0030328336B
:1023E000C2F34002DB00D34001F003022832B3F510
:1023F000A47FC1F340014FEAC20222FA01F238BFC2
:102400004FF4A473B2F5A47F2CBF9B1803F5A473FB
:1024100003F2D51303447C4A7C480721E3FB0021E7
:102420004FF09613A36296231046A38574A3D3E9B5
:102430000023FEF7BDFF554620F07F4040F2E24307
:1024400003FB05F516FB08F6B3B22061B3FBF5F804
:1024500015FB08F080B283421FFA88F659D26B4907
:10246000C01A80FB010166A3D3E90023FEF7A0FF99
:1024700020F07F408344E38EB4F804211344994450
:1024800094F84330A9EB07094E44DB09E6866BD18B
:102490005F4A6049604840F6671324F07CFB0027E0
:1024A00087F31188BFF36F8F0323184602DF2E4690
:1024B000029BA386039BA4F87C3129462046A4F8FE
:1024C00032A013F00BFB554BA18E2B44881DB3FBA0
:1024D000F5F39AB29042A4F8762104D2C1F57F4177
:1024E000FA310A4492B2019BA4F8722113B100237D
:1024F000A4F87E315B46324639462046FFF780FC21
:1025000094F8703143F0010384F8703107B0BDE8EE
:10251000F08F1B1A3D4883FB000139A3D3E9002348
:10252000FEF746FF20F07F40ABEB000BA3E74FF038
:1025300096130AF10105A3629623A385ADB20A2082
:102540004FF4FA737CE7009B08F1010818FB03F8CD
:102550001FFA88F84FF4FA7637E7C38E1F44B0F8B5
:1025600004311F44BFB207E7E26C0099636D274F47
:1025700002FB1133636517F05BF9064694F86401BA
:10258000C0F3420017F056F9064405FB06F6244B4B
:1025900006F5742606F23F26A3FB0636B60C636DDD
:1025A000E66406FB08F06A080344963A934228BFA3
:1025B0001346C4E91423049B40F2E24909FB03F3E8
:1025C000E3650023A0FB0701C4F86C310CA3D3E939
:1025D0000023FEF7EDFE134B059AABEB000BA3FBBC
:1025E0000230800A09FB00F0A0FB070104A3D3E935
:1025F0000023FEF7DDFEAE1B20F07F4758E700BF4B
:102600008D49FD1A070000008C49FD1A00CA9A3B4B
:10261000BCB7020054B102007CB002007FC3C90104
:1026200083DE1B435917B7D12DE9F04F13461546EA
:102630000A6853F8087BD2F80090B0F82EC0024622
:10264000044652F82EABD0F81E0094F81C800E46BB
:102650009178628CA5F808C09970D4F82A306B6024
:1026600091B0D4F83A30C5F82230ADF83C2094F857
:102670003E2085F826200E9010AA12E9030005F1ED
:1026800022030C90ADF83410184605210CF09CFA8A
:1026900095F8273000F03F0060F3050385F82730F8
:1026A00094F83F30C3F3040285F82820A28EEA8212
:1026B0000128C8F3801808D903F01F031B3303F067
:1026C0001F030B2B01D892B2BAB90022C9F814200B
:1026D00095F82C3062F3000385F82C300126E5686C
:1026E0002671504621460EF017FC28682E712946A7
:1026F00011B0BDE8F04F0EF01BBC336800215960EB
:10270000E38EB5F816B02B8340F2E24303FB0BFBDC
:102710003846638E0B9313F0F5F994F83F2097F841
:102720006411520962F3430187F8641117F080F8CD
:102730000A9097F86401C0F3420017F07BF80A9AF8
:1027400010440BFB00F0BA4A00F5742000F23F2061
:10275000A2FB00204FEA5B02800C963A28636A6372
:1027600094F8312040F2E24302FB03F36B64238FC1
:10277000A7F87C315946384613F0B0F9AD4BAE4A54
:10278000C7F880215B44B3FBFBF39AB2A7F876212C
:10279000298B881D824204DDC1F57F41FA310A444C
:1027A00092B2A7F872216B68C7F86831234613F814
:1027B0001C2FC2F340120A92DA0700F11281BDF811
:1027C0003430A4F823300C9884F81E804FF48073C2
:1027D000C4F81F00A383EB8AE3842B8B2385B7F80F
:1027E0007C31638597F86431C3F3420384F82C305D
:1027F000384611F0B3FAA882E0802146504674684A
:102800000EF08AFBAB8AE3801C2323710A9BD4F869
:102810000080002B40F0D9800A9B23772146404658
:102820000EF086FB95F8494095F8488004F00704BF
:102830000121204616F0CAFD08F00708824608F07C
:1028400003002830C8F3400804F00303C00020FA56
:1028500008F02833B0F5A47FC4F340044FEAC30363
:1028600038BF4FF4A470E340B3F5A47F2CBFC01869
:1028700000F5A470DFF8C481714B00F2D51050440C
:102880000721E0FB083118464FF09613C5E90333E2
:1028900000243123BB607C6063A3D3E90023FC6088
:1028A000FEF786FD20F07F4038610B99F3682D6BB1
:1028B00040F2E24202FB013303F2B341A1EB0A0A08
:1028C0002246022101200CF033F8484610F048FE61
:1028D0000246AAFB0801924653A3D3E90023FEF760
:1028E00067FDCDF80490B3685649009120F07F4809
:1028F0000AF102023A3BD2B24344012120460DF0D4
:10290000CBFB0128ABEB05057AD099F82430DB0727
:1029100053D4384611F022FA484BA5FB03A90446CC
:1029200041A3D3E9002350464946FEF741FD464BFB
:10293000B668464A079220F07F45A5FB0331BAEB03
:102940000300434B05934FF4F573069708933B69D7
:102950004FF0000BCDE903B34FF0070303FB051164
:1029600069EB01014FF47A720023FEF721FD053473
:102970003A3EE4B2CDE90150CDF80080334622461C
:10298000012158460DF0B2FA10F0FD0F0DD0314A7A
:102990003149324840F2EB1324F0FDF88BF31188F3
:1029A000BFF36F8F0323184602DF01220221104676
:1029B00011B0BDE8F04F0BF0BBBF00230122009324
:1029C000184611460DF026FBA3E795F8273043F093
:1029D000400385F82730281D16F026F801232885A6
:1029E0001BE71C4A1E491D48FD2324F0D4F8002390
:1029F00083F31188BFF36F8F0323184602DFDEE6EF
:102A00000EF030FB814580D0124A1649134840F23F
:102A1000922324F0C0F884F31188BFF36F8F03234F
:102A2000184602DF71E700BF8D49FD1A070000005C
:102A300083DE1B437FC3C901404B4C0000CA9A3B55
:102A40008C49FD1ABD8701008D49FD1A8987010057
:102A5000FD8701007CBD020080B802007CB002004E
:102A6000A4B40200D8BD0200F0B5C468636883B0A6
:102A70000546002B4FD118F029FC002018F04CFC23
:102A80000021084618F03AFC00222521082018F001
:102A900077FC3D4B019301A818F05EFC3B4940F2E6
:102AA0005B6018F013FD237AC3F3420262F306134E
:102AB0002372204617F0C2F827682E68384616F0B1
:102AC0001FFC06446A6806F10901012018F038FE6F
:102AD00018F026FF204610F051FD811C3246C9B285
:102AE000384616F01BFC054600BB204616F0A2FB3C
:102AF00010B9002003B0F0BD254A2649264840F20F
:102B0000294324F048F885F31188BFF36F8F03231E
:102B1000184602DFEDE793F82C309B07ABD01F4837
:102B2000214618F091FB18F07DFCE2E7184A1C4999
:102B3000194840F2114324F02EF81A4B0721A5FB47
:102B4000030301FB05310EA3D3E90023FEF730FC9C
:102B500015490246154824F01EF8002585F3118812
:102B6000BFF36F8F0323184602DF1148214618F088
:102B70006BFB18F057FC6FF08B00BBE7AFF30080E6
:102B800000CA9A3B00000000D6BE898E55555500FC
:102B9000C8BF02004CB202007CB00200A594010044
:102BA00054B102008D49FD1A78C002004CC00200E9
:102BB00041980100000000002DE9F041C46823792C
:102BC0006FF300038CB023710F46054618F07EFBAF
:102BD000002018F0A1FB0021084618F08FFB00220E
:102BE0002521082018F0CCFB01200EF0EFFA064654
:102BF000002800F0848006F11C0018F0EBFB5E4B0F
:102C00000B930BA818F0A8FB5C4940F25B6018F02E
:102C10005DFC2079C0F34100253016F091FB584847
:102C2000214618F011FB23799B062ED5962018F02B
:102C30007BFD00231A461946184618F0ADFCD4F85F
:102C400000802E68404616F05BFB06446A6806F179
:102C50000901002018F074FD18F062FE18F00CFD58
:102C6000204610F067FE011DC9B24046324616F0FC
:102C700055FB0546002851D157B1204616F0DAFA27
:102C800068BB00200CB0BDE8F08118F0E5FCD6E789
:102C90002369002BF1D03B4907913B49059140F254
:102CA000F31100930891CDE90377CDE901770694FC
:102CB0003346032239460DF019F910F0FD0FDCD030
:102CC000324A334933484FF4FA7323F064FF87F3F1
:102CD0001188BFF36F8F0323184602DFCDE72B4A1D
:102CE0002D492C4840F20B2323F055FF002383F39A
:102CF0001188BFF36F8F0323184602DFC1E7234A11
:102D0000264924484FF4C57323F045FF86F3118804
:102D1000BFF36F8F0323184602DF6CE71B4A20497D
:102D20001C4840F2E51323F036FF1E4B0721A5FB9C
:102D3000030301FB05310EA3D3E90023FEF738FBA3
:102D400019490246194823F026FF002585F311880A
:102D5000BFF36F8F0323184602DF1548214618F092
:102D600073FA18F05FFB6FF08B008BE7AFF3008016
:102D700000CA9A3B00000000D6BE898E555555000A
:102D800015A4010089A2010021A3010084C0020052
:102D9000E4B502007CB002004CB2020014C0020094
:102DA00054B102008D49FD1AD0C002004CC002008F
:102DB0004DA10100000000002DE9F041C468A28A85
:102DC0004FF6FF739A4282B000F0DF80054617F09D
:102DD00019FD2B89628B208CA3831A4492B2104474
:102DE00094F82730E28380B2411C21845E064FF0C4
:102DF0000001618304F1220100F1A18003F03F0092
:102E00000B4694F82810009004F1290015F0C4FD39
:102E10000646D4E90C31A28B02FB0333A26B1344A8
:102E2000E26B8B4294BFD21852188A4228BF0A46DE
:102E3000E263616C226C94F849301144616494F847
:102E4000622094F82C10C3F3020363F3061112F00E
:102E500004024FF0000384F82C10A363236478D09D
:102E600018F034FA002018F057FA201D18F074FA00
:102E70002389A17A40F25B6043EA014118F026FB06
:102E8000304616F05DFA2146594818F0DDF9A08960
:102E900018F04AFC94F8482094F84900C2F3C003A3
:102EA000002102F0070200F0070018F075FB204631
:102EB00017F052FD27682E68384616F021FA0644AE
:102EC0006A6806F10901002018F03AFC804618F003
:102ED000FBFC002018F012FDE36B94F8490003F1AD
:102EE0002F02636C00F00700012103EB420518F08C
:102EF00085FA4544054494F8490000F0070002288B
:102F000025D004280CBF4FF4BC73282301211D4495
:102F100018F076FA284418F0C9FCA18A0531324627
:102F2000C9B2384616F0FAF90546002834D12046D1
:102F300016F080F9D0B9002002B0BDE8F0810A4651
:102F400003F03F03218D15F073FD064661E718235A
:102F5000DCE7D4E913010BF0B3FC002880D194F82E
:102F6000623043F0040384F8623079E7214A224951
:102F700022484FF4B07323F00EFE85F31188BFF39F
:102F80006F8F0323184602DFD5E71D48214618F04E
:102F90005BF918F047FACEE7164A1A4917484FF47A
:102FA000AB7323F0F8FD184B0721A5FB030301FBCE
:102FB00005310DA3D3E90023FEF7FAF913490246C0
:102FC000134823F0E8FD002585F31188BFF36F8FC8
:102FD0000323184602DF0F48214618F035F918F090
:102FE00021FA6FF08B00A7E700CA9A3B00000000AF
:102FF000C1AB010064C102004CB202007CB002000F
:10300000A594010054B102008D49FD1AB8C1020017
:103010004CC00200859401002DE9F04F87B00546B1
:10302000039117461E46836804AA5B6898470028E8
:1030300031DBDDE9044AA7FB04B307FB0A37584636
:1030400019A3D3E900233946FEF7B2F9DFF860800F
:1030500002904FF0FF39D94578EB07031ED3A6FB4A
:1030600004B406FB0A4410A3D3E9002321465846C2
:10307000FEF79EF9D94578EB040403460ED3029976
:10308000AA6899420DD3BDF84010009114682846F3
:10309000DDE90221A04707B0BDE8F08F6FF08500A1
:1030A000F9E76FF01500F6E700CA9A3B0000000050
:1030B000FFC99A3B000000002DE9F04F016C9FB062
:1030C00016461F46CDE904672B9D039049B1426C1B
:1030D0004A600123934004468B6021F06BF8002383
:1030E0002364B7F10009B4BF012300232B60764BA2
:1030F000BCBF29F00049CDF8149033EA090300F071
:10310000AA80DDE904340022184621460023CDE9D7
:103110000801FDF773FD804668B12A9A0123136008
:103120002C9B13B12C9A694B1360694B0A930A9834
:103130001FB0BDE8F08F1CAB01931DAB009303984B
:10314000DDE9082321F06AFB5FEA1955824640F069
:103150009880DDE91C85454405F23243202B40F37D
:103160008383C3F1400309FA03F905F2124326FAF7
:1031700003F349EA0300FDF75FFA0123013DA1F1E2
:10318000F8711193534B0022FDF718F948A3D3E9C6
:103190000023FDF7CBFA48A3D3E90023FDF710F98C
:1031A000064628460F46FDF757FA45A3D3E9002304
:1031B000FDF7BCFA02460B4630463946FDF700F9EA
:1031C00006460F46FDF762FD002283460023304687
:1031D0003946FDF71DFD002840F01A83A8EB0508CD
:1031E000BBF1160F08F1FF3400F28B813A4D05EB6D
:1031F000CB05D5E90023DDE90801FDF709FD00282D
:1032000070D00023002C0BF1FF3B1093C0F27E81A5
:1032100000230B93BBF1000F6ADA0B9BA3EB0B03AC
:103220000B93CBF10003CDE90EB3289B092B4FF094
:10323000000B65D8052B40F31C83043B2893002525
:10324000289B023B032B00F22386DFE813F0600487
:103250005D04540438042A9AC9F3130942F20F7327
:1032600059EA060913601CD12C9B002B00F02B8619
:103270001A4B0A9308332C9A0A9813601FB0BDE8C2
:10328000F08FDDE90812C2F31303084643F07F51C3
:10329000CDF84480A5F2FF35DDF8708041F440118F
:1032A00070E72C9B002B40F0E7830D4B0A933EE721
:1032B00061436F63A787D23FB3C8608B288AC63F3C
:1032C000FB799F501344D33F0000F07F55B10200BB
:1032D00054B102000000F83F80AB020004C60200B7
:1032E00010C60200B8F1000F40F3608410900B90FC
:1032F00000230F93289BCDF838B0092B5C4499D953
:103300000023CDE9283301254FF0FF330C950693B8
:10331000039B00215964069B1893039820F024FF17
:103320000A90002800F0BD85039B0A9A1A64069B48
:103330000E2B00F21581002D00F012810E9A002A4A
:1033400040F33B84B24D02F00F0305EBC303D3E916
:10335000008913461511DA0540F1FA83AD4BDDE91A
:103360000801D3E90823FDF70BFBCDE9120105F0B5
:103370000F0503277DB1A74EEB0708D54046494608
:10338000D6E90023FDF7D2F90137804689466D1052
:1033900006F10806F0D142464B46DDE91201FDF781
:1033A000EFFA80468946109B43B19B4B0022404672
:1033B0004946FDF72DFC002840F0F1843846FDF722
:1033C0004BF942464B46FDF7B1F9944B0022FCF70E
:1033D000F7FF069B0646A1F15077002B00F0A9806D
:1033E0000E9B1993069B12930A9B894D49464046B2
:1033F000CDE914675E1CFDF749FC129905EBC1038A
:1034000053E902120746CDE91612FDF725F90246E7
:103410000B4640464946FCF7D1FF89460C993037A8
:10342000DDE916238046FFB2002900F053847C4971
:103430000020FDF7A5FADDE91423FCF7BFFF0A9D84
:1034400002460B46CDE914232F7042464B46FDF74A
:10345000FDFB002840F09784CDE91AB4CDF858A0C0
:10346000129DDDE914AB00272AE00137AF4280F25C
:10347000DE846C4B504659460022FDF757F9694BE4
:10348000002282468B4640464946FDF74FF9894661
:103490008046FDF7FBFB0446FDF7DEF802460B46CF
:1034A00040464946FCF78AFF303406F8014B524645
:1034B0005B4680468946FDF7ABFB002840F0B484AC
:1034C00042464B4654490020FCF778FF52465B4683
:1034D000FDF79EFB0028C8D0199BDDF858A00A9A7A
:1034E000374603F1010802E0974200F07C843E4633
:1034F00017F8013D392BF7D00133DBB23B7045465D
:1035000075E10123002C1093BFF682AEC8F10103D0
:103510000B9300247EE63846FDF79EF842464B4664
:10352000FDF704F93D4B0022FCF74AFF0646A1F1E6
:1035300050773D4B404649460022FCF73FFF32465C
:103540003B4680468946FDF781FB002840F05A84BF
:1035500040464946324607F10043FDF759FB28BB78
:103560001D9B002BC0F292800E9A0E2A00F38E80D3
:10357000274D0E9B05EBC305D5E90034CDE9043496
:10358000299B002B19DA069B002B16DC0ED1264B4B
:103590000022DDE90401FDF7C9F802460B46DDE92A
:1035A0000801FDF73FFB002800F02C844FF00009D4
:1035B0000A9E4F46299BDD4325E2DDE90445DDE90E
:1035C000088922462B4640464946FDF7D9F9FDF7C2
:1035D0005DFB0646FDF740F822462B46FDF7A6F8B0
:1035E0000A9F0B46024649464046FCF7E7FE06F1B5
:1035F000300307F8013B069B012B00F012830125E5
:10360000CDF818A09946DDE904ABA8462CE000BF30
:1036100080AB020058AB02000000F03F00001C40ED
:103620000000E03F000024400000144052465B468A
:1036300020462946FDF7A4F9FDF728FB0646FDF7CD
:103640000BF852465B46FDF771F808F101080B468E
:10365000024629462046FCF7B1FE06F13003C84574
:1036600007F8013B00F0DB82B94B0022FDF75EF862
:103670000022002304460D46FDF7C0FA0028D5D0ED
:103680000E9DDDF818A001353E46B0E00C9A002AE8
:1036900040F0D28000230F9D0B9E0C931F4656B125
:1036A000002C08DDA6420B9A3346A8BF2346D21A47
:1036B0000B92F61AE41A0F9B53B10C9B13B1002D19
:1036C00040F0E88251460F9A039820F003FF8246AB
:1036D0000398012120F01AFE8146BBF1000F40F053
:1036E000B681289B012B40F3CC810120204410F0AF
:1036F0001F0000F09A80C0F12003042B40F3DA8110
:103700000B9BC0F11C0003440B93064404440B9B29
:10371000002B05DD514603981A4620F035FF8246FE
:10372000002C05DD49460398224620F02DFF8146F6
:10373000109B002B40F07081069B002B40F34881CA
:103740000C9B002B40F0A4800E9D0135DDF82880F5
:10375000069CDDF80CB0012607E0514600230A2242
:10376000584620F031FD013682464946504620F049
:1037700015FBA64200F1300308F8013BEDDB069A89
:10378000002AC8BF16460A9AD8BF012602EB060BCC
:103790000024514601220398049320F0F5FE494687
:1037A000824620F069FF002840F3E3810A9A02E094
:1037B0005A4500F0E9815E460BF1FF3B16F8013CEB
:1037C000392BF5D001338BF80030DDF80C804946F9
:1037D000404620F0EFFC57B12CB1BC4203D021464B
:1037E000404620F0E7FC0398394620F0E3FC0398BC
:1037F000514620F0DFFC002333702A9B1D602C9B78
:10380000002B3FF494AC0A981E601FB0BDE8F08F07
:103810005846FCF721FF32463B46FDF7EFF90028FA
:103820007FF4DCAC0BF1FF3BD8E41C230B9A1A4469
:103830000B921E441C446AE7289A012A40F3A9818E
:10384000069A0F9B551EAB42C0F26B81002AA3EB78
:10385000050580F2DD820B9B069A9E1A03980121D2
:1038600020F054FD07461AE7C3F1200306FA03F0DF
:1038700081E40125E4E43946002303980A2220F07C
:10388000A3FC189B002B074640F3EF820E9506938E
:10389000002E00F33F81BBF1000F40F0DF81B846FE
:1038A0000A9E069C731E1C44049B0C9403F00103A7
:1038B000039C0F934946504620F070FA39468346E0
:1038C000504620F0D9FE424649460546204620F0A3
:1038D000F3FEC26801460BF13003002A3AD108908A
:1038E00050460B9320F0C8FE08990690204620F021
:1038F00061FC069A0B9B002A5AD1289A1AB90F9A92
:10390000002A00F09A82002D45DB0C9AB346B242A1
:103910000BF8013B00F0B981514600230A222046F2
:1039200020F052FC4745824639464FF000034FF0E5
:103930000A02204636D020F047FC414607460023C5
:103940000A22204620F040FC5E468046B2E700BFD7
:10395000000024400398069320F02CFC002D069BC9
:1039600006DB049A289902F001020D432A432AD16A
:10397000514601220398049320F006FE49468246F0
:1039800020F07AFE0028049B40F3E880392B00F0F9
:103990002F820BF131030E9D06F8013B3C460135A9
:1039A000474612E720F010FC5E460746804681E756
:1039B000002DC0F27D8228990D430F990D4300F030
:1039C0007782002AA1DD392B00F012820133E2E771
:1039D000289B022B7FF7B4AE069B002B40F01D8185
:1039E00049460522039820F0EFFB014681465046E8
:1039F00020F042FE002840F310810A9E0E9D3123E4
:103A000006F8013B013503984946013520F0D2FB09
:103A1000002F7FF4E8AEEAE64946504620F02CFE3F
:103A20000028BFF689AE5146002303980A2220F0F1
:103A3000CBFB0E9B5D1E0C9B8246002B7FF41BAFC5
:103A4000189B002B40F3FF810E9D06937EE60146F6
:103A50005A46039820F03EFD289B012B81466CDDE1
:103A60004FF0000BD9F8103009EB8303186920F0F0
:103A7000FBFBC0F1200039E6924B0A930333FFF7BA
:103A8000FABB049B002B7FF430AEDDE90412C2F3D5
:103A90001303002B7FF429AE8B4B134023B10B9BF8
:103AA00001330B9301340123BBF1000F40F0AE81D1
:103AB0009B461AE63FF42BAEC0F13C03B6E6012369
:103AC0000C93299B0E9A134418930133012B1E4625
:103AD0000693B8BF0126172E40F3D5810122042397
:103AE0005B0003F11400B042114602F10102F7D964
:103AF000039B596411E401230C93299B002B33DDB4
:103B0000189306931E46E6E700230C93D9E700239B
:103B10000C93F2E739460398324620F035FD07460C
:103B2000B9E60F9B069A0F95EB1A9B440B9B1E461A
:103B3000134414440B93002590E6049B002B8FD173
:103B4000DDE90401C1F313030A46002B88D1A3E782
:103B5000DDE908230227CDE912230BE47FF41BAF34
:103B6000DA077FF518AF11E7012329930693FFF7D2
:103B7000CFBB03D1049BDB073FF518AE5E461BF8B5
:103B8000013D302BFAD020E60A9A3123013513701B
:103B90001BE6119A002A00F0F98003F233430B9AD6
:103BA0000F9D16461A441C440B9257E6C8F10103B8
:103BB00004460B931090FFF79BBB00F0EB800E9B2D
:103BC000424D5E4206F00F0305EBC303D3E9002329
:103BD000DDE90801FCF7AAFD3511CDE9120100F07D
:103BE0004D813B4E0023022780468946E80709D5D0
:103BF000D6E9002340464946FCF798FD0137804648
:103C0000894601236D1006F10806EFD1002B7FF4E1
:103C1000CAABDDE91289FFF7C6BB0A9ECAE4DDF82C
:103C200018A00E9D02460B46FCF7CAFB02460B4647
:103C3000CDE906230135DDE90423A846FDF706F8A2
:103C400040B9DDE90423DDE90601FCF7D7FF18B12F
:103C5000F10701D50A9A4AE43E46C8E57968039817
:103C600020F082FA0546002800F026813B690233E5
:103C70009A0007F10C010C30FCF702FB039829466F
:103C8000012220F081FC80460AE60E9D3C4601356B
:103C900047467EE5DDF80C8039462A46404620F04E
:103CA00019FC524601460746404620F05DFB51464E
:103CB0008246404620F07EFA0F9B5B1B0F933FF439
:103CC00007ADFFE410C602000000F07F80AB0200E9
:103CD00058AB0200DDE91401FCF728FD0A9B1F70B8
:103CE000129B012BCDE90C0100F0C680129F0A9BAC
:103CF000CDF844B01F447C4B002240464946FCF7B7
:103D000015FD89468046FCF7C1FF8346FCF7A4FCFD
:103D10000BF1300B02460B4640464946FCF74EFB82
:103D200006F801BBB74280468946E4D1DDF844B0CD
:103D30006E4B0022DDE90C01FCF742FB02460B460C
:103D400040464946FCF782FF002867D1DDE90C2395
:103D500066490020FCF732FB02460B4640464946C6
:103D6000FCF756FF48B91D9B002BFFF693AC0E9B4A
:103D70000E2B3FF78FACFFF7FCBB3E46013F16F81A
:103D8000013C302BF9D0199D013530E51C9BC3F166
:103D9000360304E7DDE908890227FFF704BB069B29
:103DA000002B3FF4B8AB189B002B7FF7D9AB0E9AD2
:103DB0001293013A4C4B1992404600224946FCF7B7
:103DC000B5FC80468946781CFCF746FC42464B46CB
:103DD000FCF7ACFC464B0022FCF7F2FA0646A1F1D8
:103DE0005077FFF701BB08F101083123FFF786BBCD
:103DF0000E9D0A9AB34639233C460BF8013B013528
:103E00004746D8E44FF000094F46F6E59B4629E6C1
:103E10000B9B1E46134414440B931FE5199B0A9AEF
:103E200003F10108FFF763BBDDF858A0ABE7DDE95C
:103E30001AB4DDF858A0FFF793BB392BD8D0002D6A
:103E40003FF7A7ADA7E5289B022B0ADC189B06933A
:103E500049460E9D1FF0A2FF0A9A00F1300313702D
:103E60008DE4189B06930E95B6E5289B022BF8DC93
:103E7000189B0E9506930BE5374659E7DDE9128945
:103E80000227FFF790BA039B00215964FFF745BA58
:103E9000039B00255D642946184620F065F90A90C9
:103EA000A8B9144B144800224FF4D57120F004FE39
:103EB000002A7FF770AD5BE50E4B0F482A4640F2B3
:103EC000EA2120F0F9FD0D4B0A93FFF730B9039B6F
:103ED0000A9A1A644FF0FF330122299518930C9225
:103EE0000693FFF73DBB00BF000024400000E03F09
:103EF00000001C4014C6020028C6020004C60200CE
:103F000010B50D4822F0DDFD00F054FC00F094FBEC
:103F1000002006F009FA044620B10146074822F0C5
:103F2000D0FD10BD064822F0CCFD00F0A1F800F055
:103F300005FA2046F5E700BF98C702009EC70200B9
:103F4000BEC702002DE9F0473B483C4CDFF8F0903B
:103F5000DFF8F080DFF8F0A08AB022F0B2FD3B4B32
:103F600040F201121A8004225A6041F6FF12DC600E
:103F70001A814C232370002363700223A37015233E
:103F8000E37003AF4FF0FF324FF0FF33394648463E
:103F90001CF016FA00284AD12D4822F092FD07F0B5
:103FA000C1F80146002833D010F1780F02D029481B
:103FB00022F087FD284B294A03F1100153F8040B26
:103FC00042F8040B8B42F9D151460398244EFCF77A
:103FD000E3FFFDF7CDF9049BE375C0F307222275DB
:103FE000C3F30722C8236075A27523760FCE05ADF3
:103FF0000FC533682B60002314490093022205A8E3
:1040000007F05EF8014638B1164822F05AFDB8E7CD
:10401000154822F056FDCDE797E80600134822F038
:1040200050FD00214FF4804026F0CDF8A9E740462E
:1040300022F047FDA5E700BFD5C70200D24B002004
:10404000B8130020D9C802000000C8426027002031
:10405000FBC702002DC8020009C90200D64B002090
:10406000C0AA020071C8020052C8020097C802002C
:1040700000B589B000220023CDE9062300230622E3
:10408000CDE90323CDE9013300930549054B0648EB
:104090004FF480621CF0CCFD09B05DF804FB00BF5A
:1040A00080510020453F0000F01600201FB50B4A4C
:1040B0000B493023CDE9012301A80023039307F026
:1040C00043FB014628B1074822F0FBFC05B05DF830
:1040D00004FB054822F0F5FCF8E700BF0101600091
:1040E000ED4000001AC902003AC90200F0B51E46B0
:1040F000037893B0044607AD032B4AD8DFE803F0FA
:1041000002434547274928461DF0EAFF0595637895
:104110000493A3780393E37802932379019363795B
:104120000093A379204A1E210AA822F0D7FC356803
:10413000B78835B3182F24D900202C5C431C04B356
:104140001C44A7421DD3EB5CFF2B18D12E18B3786B
:104150004C2B14D13379022B11D17379152B0ED13D
:1041600006301249102228441DF056FE38B9F08A54
:10417000FCF7BEFE0E49FCF7C3FF0E4B1860A742CA
:104180000DD813B0F0BD0C49BDE70C49BBE70C4995
:10419000B9E70C4A0A21284622F0A0FCB6E72046DF
:1041A000CBE700BF4FC9020071C90200D1C90200AC
:1041B0000000C8427027002056C902005DC90200F5
:1041C00067C90200FDE902002DE9FF411D4C2046B0
:1041D00025F063FC054628B91B4804B0BDE8F04152
:1041E00022F06FBC2269A1681368184EDFF8608066
:1041F00043F4006313600B68164A0B21204698476E
:10420000002723690193A36803A95B6820469847A8
:1042100030B9019B1A68039B534013F400630ED01E
:1042200037B12F4600214FF4004025F0CCFFE8E7DE
:1042300000220023314640461CF064F8F1E71F4697
:10424000F0E700BF50A5020094C90200EB4B00202C
:10425000181400201100010008B5A0F12E03092B4D
:104260000FD9A0F12703062B0DD9463802280AD909
:10427000064B07491868FDF74BF820B1054800F0D8
:1042800097F9002008BD0120FCE700BF702700203F
:1042900000004842AEC9020070B5224D224C234EA8
:1042A00086B04FF0FF324FF0FF330DF10301284687
:1042B0001CF086F80028F4D19DF80300FFF7CCFF2E
:1042C00020702178304622F0FCFB207800F08CF939
:1042D00015491748002200231CF014F815484FF028
:1042E000FF324FF0FF3301A91CF06AF830B9019892
:1042F000FCF7C4F900F088F9019B0293237803933B
:104300000D48C268036A9A4204D10022002304A91E
:104310001CF056F80022002302A907481BF0F2FF08
:10432000BFE700BF58130020EB4B0020BBC90200C1
:10433000E813002088130020B8130020F0B50026F1
:1043400089B0002700240725CDE90667CDE903548D
:10435000CDE90144134B144900944FF48062134893
:104360001CF066FC0623CDE90243CDE90667CDE9E2
:1043700000440F4B0F4904944FF480620E481CF028
:1043800057FC0E4B0E490094CDE90667CDE9035466
:10439000CDE901444FF480620A481CF049FC09B0A1
:1043A000F0BD00BFAD400000405E0020701800204E
:1043B000C9410000005A0020F01700209942000077
:1043C000C055002070170020F0B52A4F91B0044668
:1043D000A3685B6D002B41D1A3681B6D002B43D1FB
:1043E0003B78002BF4D1A3685B6C1BB12046984747
:1043F0000028EDD0204A53685169D2695B1AD21A5D
:104400003F2A0BD85AB9A368DB6B0BB120469847FB
:1044100001231A483B7022F054FBD9E74022A368DD
:104420009B6A0BB91648F6E7694620469847051E71
:10443000F8DBCDD010482A46694622F0ADFFA842ED
:10444000064603DA291A0F4822F03BFB0E48314694
:1044500022F037FB0D481CF00FF9B9E720469847CA
:104460000028B9D111B0F0BD204698470028B7D137
:10447000F8E700BF6C4C002078270020E1C902005B
:1044800001CA02001ACA02003ACA020090140020AF
:10449000024883689B6B03B11847704764A502000C
:1044A0002DE9F3473548364E364D22F00AFB002100
:1044B00041F69A1025F087FE4FF0FF324FF0FF33A0
:1044C00030461CF013F9304F2F4801220DF1030143
:1044D00022F082FF012810D02C4C2378002BE6D04C
:1044E0007B687A699A1AFB699B1AB3F5807FDED9DB
:1044F000FFF7CEFF00232370D9E72B687E2B1CD853
:104500009DF80320224C591C0A2AE2542960DBD171
:10451000002262541F48E254214622F0D2FA20467B
:104520001D49DFF87880DFF87890DFF878A01DF07B
:1045300047FE04463CB92C60C6E71B4822F0C1FA8E
:1045400000232B60C0E72146404622F0BAFA2046FD
:104550001DF092F90190002201A9002348461BF0AA
:10456000D1FE019940B1114822F0ABFA0A4900206E
:104570001DF026FE0446DDE75046F5E754CA02006A
:104580009014002074270020782700206C4C002015
:10459000EC4B00209ECA0200B5CA0200B7CA020056
:1045A00058130020FBCA020075CA0200C6CA0200E6
:1045B000F8B5044698B1FBF7A3FD094F0646002560
:1045C000B54205DB21460748BDE8F84022F079BA3C
:1045D000615DBB680248DB6998470135F0E7F8BDCB
:1045E00064A5020026CB020000B589B00346054A47
:1045F000202168461DF030FD6846FFF7D9FF09B05D
:104600005DF804FB39CB020000B5094989B0FCF71D
:10461000C3FCFCF787FE074A0346202168461DF0CD
:104620001BFD6846FFF7C4FF09B05DF804FB00BF3F
:104630000000C84244CB0200F0B58BB0434825F0DF
:104640002CFA38B9424822F03CFA4FF0FF342046A9
:104650000BB0F0BD002002F0B7FE044620B10146C9
:104660003C4822F02EFAF0E73B4B384E58604FF4AE
:104670008062C3E90200C3E90500DA611861374AC4
:1046800037481A6022F01DFAB568274609972B6E45
:104690001BB109AA042130469847099B002B49D039
:1046A000304822F00EFAB368DB6D002B48D00821A9
:1046B000264801229847014610B12B4822F001FA02
:1046C000B368DB6D002B3ED01021204801229847B3
:1046D000014610B1254822F0F4F9002140F6CD4002
:1046E00025F071FD00220023CDE9062300250723D4
:1046F000CDE90335CDE901551D4B1E491E480095F6
:104700004FF480621CF094FAB3682BB19B6D1BB11F
:104710001A490E482A469847FFF7BAFE184822F071
:10472000D0F900214FF4804025F04DFD1548FFF7EA
:104730003FFF8CE7002140F6CD4025F044FDA5E782
:104740006FF05701B9E76FF05701C3E764A50200A6
:104750004DCB020066CB0200782700206D4C002074
:104760007FCB020092CB0200B8CB0200CECB02007E
:10477000A144000080620020F0180020C94300001E
:10478000E4CB020012CC020013B5094C4FF0FF320B
:104790004FF0FF330DF1070120461BF011FE18B951
:1047A0009DF80700FCF770FFC82021F026FFEDE719
:1047B0001814002010B5144C206825F06EF920B9AB
:1047C000BDE81040114822F07CB920680269816878
:1047D000136823F4803313600B684FF4C022102158
:1047E00098472068002121F026FF2068026981682F
:1047F000136823F4004313600B68BDE810404FF4C6
:1048000080320F21184700BF880D00203DCC0200E8
:1048100010B50A4C0021206821F00DFF022025F080
:1048200037F92068012121F006FF0A2025F030F930
:1048300020680021BDE8104021F0FDBE880D002059
:1048400038B50C4D286821F0E8FE0028FAD024F095
:10485000F6FF0446286821F0E0FE0128FAD024F093
:10486000EEFF054B001BA0FB0303C00B40EA4340D7
:1048700038BD00BF880D002040420F002DE9F04FE9
:1048800091B08407009302F004030293C2F3C203C1
:1048900003F10103DDF86880039205460E46059397
:1048A00040F0BA81041D30B1072909D86FF01B0010
:1048B00011B0BDE8F08F01F007063444C6F10806D8
:1048C000009B4FF00009591E4FF0040A4FF0FF33D0
:1048D0000193CDF810904F46CB4653460DB1009A48
:1048E00022600598002800F3E8809848009A8242E8
:1048F00003D397488242C0F0E080039AA4EB050EF0
:1049000092074FEA9E0000F103810F2F00F2B18061
:10491000002D00F0058107F140020DEB020C019A19
:104920000CF8200C0CF8102C049801300490E7E0EF
:104930007A285DD84B280ED8472859D829282DD851
:10494000252852D054D820287AD02338D0F1000B13
:104950004BEB000B74E04C382E2849D8DFE800F010
:104960007048484848484848484848484B4848489C
:10497000484848484859484B4B595959704B6D481D
:104980007048184B184848827F4B48484B487F0076
:1049900000204FF0000B4FF0040A38E02A38C0B274
:1049A000012202FA00F010EA0E0F49D110F0625C09
:1049B0002FD110EA020B43D06046013C5444B4FBB3
:1049C000FAF40AFB04F4002D61D0A3EB050CA44417
:1049D000B4453FF66BAF002868D1042B47D158F897
:1049E000043B2360043404232AE0019A013A019233
:1049F0004FF0000B24E011F8010C6C2834D111F8B1
:104A0000023C00206C2B8346C5D14FF0080A534668
:104A1000D3E708F1070828F007080734F8E802ABE5
:104A200024F0070435B106982044B0423FF63EAF6B
:104A3000C4E900AB08344FF0000B4FF0080A5346AE
:104A400011F8010F002878D0BBF1000F7FF470AF90
:104A50002528F5D1019B013301934FF0010B4FF055
:104A6000040AECE7584694E700208346A5E7082BA4
:104A700002D06FF015001BE708F1070828F00708BF
:104A8000F8E80223C4E9002308340823D8E768B90A
:104A9000042B02D108F10408A4E7082BE9D108F19E
:104AA000070828F0070808F10808EDE7059A013A19
:104AB000059258F8042B009210E7039A900720D52E
:104AC000A4EB050E4FEA9E004FF0010CBEF5007FEF
:104AD000CFD20F2FCDD8F5B107F140020DEB020E6A
:104AE000C0B2019A0EF8200C0EF8102CBCF1000F89
:104AF0003FF41AAF60F07F000EF8200C09F10109B5
:104B00000137C5F10802043406924FF6DA7E97E7C2
:104B10004FF0000CDAE7BCF1000F01D00136EFE7EF
:104B2000029802360028EBD10098CDE90631FBF758
:104B3000E7FADDE906310644E2E7631BB3F5806F6F
:104B400097D23DB9A6F10804E018B1E670A40200BE
:104B500094EE0200029A28609B082B709DF810309A
:104B6000C2B1EB7085F80290B9F1000F05D008A82A
:104B70000022C5F1010C97420ED1C5F101030DF1E0
:104B800020084FF0000A01930DF1300B574512D168
:104B9000601B8DE66B70E5E710F8013B190608D540
:104BA0000CEB040EB64503F07F033FF67FAE04F82E
:104BB000013B0132DFE7B9F1000F03D098F9002083
:104BC000002A17DB029BD3B11AF80B2004F8012B43
:104BD0000022019B18191044B0423FF667AE98F8C6
:104BE000000004F8010B009903922046FBF748FBF4
:104BF000039A14440AF1010A08F10108C6E798F87B
:104C0000002055F822300093029B45F8223000988E
:104C1000FBF776FA421CDCE76FF00D0048E600BFB8
:104C20002DE9F04F97B000AF90F802A0D7F880B010
:104C30003B62CBF3C0030446FA62BB61894641B9CB
:104C4000457800780AEB800020444D4517D8A0EB4A
:104C50000409E378FB61BAF1000F02D01BF0010FE9
:104C600016D1FB6953BBFB6A1BB13A6A4946204621
:104C700098474D4628465C37BD46BDE8F08F461C38
:104C80003046FBF73DFA0130304409F10109DCE719
:104C9000237862687A62FA6A9900796104EB830189
:104CA000002A40F000814D460E4601EB0A094FF004
:104CB00000084E454CD101EB0A0610E01BF0020F34
:104CC000D1D023789A007A6162687A62FA6A04EB3A
:104CD0008301002A77D14D4601EB0A0690461BF06E
:104CE000050F0CBF02230123FB62FB6906EB430A9D
:104CF0000BF00203BB625645BCD016F8021B16F837
:104D0000013C54F82390994B994502D3984B99450F
:104D100036D3BB69002B40D0786A21F097FE00287B
:104D20003BD0E9468AB06A46924B53617B6AC2E93E
:104D300006314FF4007313848F4B42F8103F8F48B5
:104D400000234FF4125101F0FFFB023DCD46D2E7A4
:104D500016F8013BF96254F82300FBF7D1F9D7F8B4
:104D60008430F96A01304BB1D7F8883098453EBF9E
:104D7000D7F8843023F8180008F10108054498E7B3
:104D8000BB6923B1786A21F061FE0028C9D11BF00C
:104D9000010F05D1FB6AED1AADE7BB6A002BAAD063
:104DA0004846FBF7ADF9D7F8843053B1D7F88830CF
:104DB00098453FBFD7F88420431C22F8183008F1EB
:104DC0000108054497E7BAF1000F72D01BF0040602
:104DD00072D0D046002607F1480052463B61B962C6
:104DE000FBF74EFAB96A3B6901EB0A02BA62FA694B
:104DF000F9695200FA60BA6A02EB41023A610BF0BB
:104E00000202BA603A69B96A8A4257D162787A6214
:104E10001BF0020F32440CBF4FEA580100211BF077
:104E2000010FD2B240F09F801BF0040F14BF404628
:104E30000020BB616270A070E1703A6A7969FB6A18
:104E400020469847051EFFF615AFBB6923707B6AA5
:104E50006370FB69E37041463A6AFB6A84F802A01A
:104E600007F148009847B0F10008C0F2BB807B69A9
:104E70003A6AA9EB0A01C91AFB68C91AD7E90A03F9
:104E800098470028C0F2B080A84408EB00054FF016
:104E9000000B07F1380AB34572D300213A6AFB6A66
:104EA00008469847E6E656464FF0000807F13800F6
:104EB00093E75646D04697E7B04695E7BA6A12F8A8
:104EC000021BBA6212F8015C284A54F8250090428D
:104ED00002D3274A90421ED3BA6932B1786A7B6006
:104EE00021F0B4FD7B6800288CD1BA6802BB08F1C0
:104EF000280207F1300C08F10100944407F1580230
:104F000052FA80F008F102080CF8101C5FFA88F8D9
:104F100000F8105C76E7BA693AB1786A7B6021F0F4
:104F200095FD7B6800287FF46DAF1BF0010F09D061
:104F300006F1280207F13000711C161806F8205CF3
:104F4000CEB25FE71BF0040F3FF45CAF08F128021C
:104F500007F1300008F1010102EB000808F8105CCD
:104F60005FFA81F84EE7002063E700BF70A40200FB
:104F700094EE020064CC020004000001F8A90200D3
:104F80001BF80A3087F8373054F82390D7F884306C
:104F90002BB3D7F888309B4521D2D7F8843033F82B
:104FA0001B803A6AFB6A012107F137009847002805
:104FB0001ADB0544B8F1000F06D14846FBF7A0F80C
:104FC00000F101081FFA88F83A6AFB6A4146484630
:104FD0009847002808DB05440BF1010B5BE74FF015
:104FE0000008DEE7454645E6054643E6014B186006
:104FF000704700BF8C0D002030B587B00025CDE98B
:1050000003010446009503A90548059500F06EF8D4
:10501000DDE904309842B8BF255407B030BD00BF69
:105020009B6A0200F0B5094E016802460A2700207B
:105030000B4601311C78355D6D0701D41360F0BD5E
:1050400007FB0043A3F13000F2E700BFA1C4020058
:105050002DE9F84F15469A46D378234A12F803B043
:105060006F2B81460F460BF0030B2BD026D8582B05
:105070000CBF10260A26DDF8288032460023484659
:105080003946FCF795F9092A08F1FF38D4B21ED841
:105090003034B145E4B277F1000788F8004001D31D
:1050A000D04511D82B789B0605D5082E15D1AB78A5
:1050B00043F00803AB704046BDE8F88F03F0F703F8
:1050C000702BD5E70826D6E781460F46D5E7BBF11A
:1050D000010F0CBF37345734DBE7102EEBD1AB7820
:1050E00043F01003E6E700BFA1C402002DE9F04F32
:1050F0009FB08246039117461C460025387810B9A8
:10510000284600F0A0BD252809D00399D0470028E3
:10511000C0F299857B1C01350593059FEEE71822A7
:10512000002110A81CF028FF7B78252B00F0BA8006
:105130000023791C98469E469C4618460E4611F858
:10514000012B2B2A00F0E18000F2D880202A00F009
:10515000DF80232A00F0DF802BB19DF8483043F038
:1051600040038DF84830B8F1000F05D09DF8483065
:1051700043F020038DF84830BEF1000F05D09DF8B4
:10518000483043F010038DF84830BCF1000F05D0D3
:105190009DF8483043F008038DF8483028B19DF859
:1051A000483043F004038DF848309DF8483003F050
:1051B0004401442903D16FF386138DF848309DF8DC
:1051C00048300E9643F080032A2A8DF8483040F08C
:1051D000A7809DF8493043F001038DF84930731CD6
:1051E0001A782E2A9DF849200CBF0121002161F375
:1051F00041028DF849200CD15A1C0E925A782A2A65
:1052000040F09E809DF8492042F004028DF849202C
:1052100002331A786C2A00F0BF8000F2A180682A5D
:1052200000F0A7806A2A00F0C0804C2A00F0C580F8
:1052300013F8012B0593782A8DF84B2000F2058195
:105240006D2A00F2C780692A00F2FF80572A00F217
:10525000DE80412A04D0A2F14503022B00F2F58042
:105260009DF84A3002F0DF020421A2F1410661F309
:10527000020372429DF849108DF84A30724162F380
:10528000C7110A068DF84910CBB200F11D8103F059
:105290007802182A40F007816FF3C6038DF8493071
:1052A0000023F6E08DF84B30BB1C05939DF8492098
:1052B0009DF84A30D10703F0070040F1078154F808
:1052C000041B0491002908DA9DF8481041F00401FC
:1052D0008DF84810049949420491560740F1FE8028
:1052E00054F8046B002E80F2FD809DF849206FF386
:1052F00041028DF849204FF0FF36F3E02D2A0DD002
:10530000302A7FF429AF012318E74FF0010C15E78D
:105310004FF0010E12E74FF001080FE701200DE7F3
:105320000EA8FFF77FFE0E9BB3423FF459AF9DF8E6
:1053300048201390C00F60F341028DF848204FE7DA
:105340000EA8FFF76FFE9DF848301490C3F340029B
:1053500042EAD07262F341038DF848300E9B58E761
:10536000742A26D07A2A7FF463AF9DF8492006215B
:105370000CE05A78682A9DF8492006D1012161F392
:10538000C6028DF84920023352E7022161F3C602BA
:105390008DF8492001334BE75A786C2A9DF8492053
:1053A00001D10421EBE70321F0E79DF84920052115
:1053B000ECE79DF849200721E8E7BDF8482022F4F2
:1053C000F04222F0020242F4804242F00202ADF8C2
:1053D0004820DFE76E3AD3B201229A4040F282437E
:1053E0001A429DF8493037D112F0240F5FD1D1070E
:1053F0002BD59DF84A2003F07803A3F14000032148
:1054000061F3020243428DF84A20434141E0A2F198
:105410005801C9B2012000FA01F111F4624F7FF482
:105420001FAF40F6010319429DF849301AD111F41B
:10543000043F0AD09DF84A2060F3020203F078038B
:10544000402B8DF84A207FF42BAF9DF8483043F075
:1054500001038DF8483023E79DF84A20022161F3CB
:105460000202EBE79DF84A10022003F0780360F394
:105470000201402B8DF84A1002BF9DF8481041F000
:1054800001018DF84810632A7FF40AAF003B18BF72
:1054900001239DF84820C2F340010B4363F341020E
:1054A0008DF8482002E713F0380FCED1F8E69DF8CA
:1054B0004A20032113F0780F61F302028DF84A208D
:1054C00014BF01230023E4E70123E2E79DF948101C
:1054D0000029B4BF13994FF0FF31FDE691077FF526
:1054E0000AAF149E9DF8491000220428CDE913222A
:1054F00007D18A0705D49DF94920002AACBF0626AA
:105500000D2603F00703012BC1F3C30132D1CB1EDB
:10551000042B04D8DFE803F0204545202000236851
:1055200001294FEAE372CDE910321BD19DF94030D9
:10553000DA17CDE9103204349DF8483006939B0702
:105540004FD0059B03993A46504621F00DFB0028A9
:10555000C0F279830544E0E554F8043BDA17CDE95D
:105560001032E9E70229E6D11AB243F3C033CDE99C
:105570001023E0E7022B24D1CB1E042B04D8DFE854
:1055800003F0181010181800012954F8043B4FF0CC
:10559000000214D00229CDE91032CDD19BB2109374
:1055A000CAE7073424F00704F4E80223CDE9102306
:1055B000C2E754F8043B109300231193BCE7DBB21D
:1055C000CDE7042B08D1073424F00704D4E90023E5
:1055D0000834CDE91023AFE7032BADD154F8043BD9
:1055E000DDE79DF84B80B8F1780F3FF696ADB8F146
:1055F000570F5CD8B8F1250F00F0A480B8F1240F44
:105600007FF68BADB8F1410F04D0A8F14503022B12
:105610003FF683ADDDE91023002BC0F24D810699E2
:10562000080700F14C81C1F300194FEA4919C3F38F
:105630000A51C3F31303002940F0448152EA0300E6
:1056400014BF4FF0010C4FF0000CD80240EA52504A
:10565000D702CDE90C70B8F1460F47EA010740EADE
:10566000E17008BF4FF06608384300F0B881BCF124
:10567000000F10D01B0343EA125317033A46184693
:105680004FF0000C002880F25681BCF1000F40F072
:105690005981CDE90C730D9B43F00043A1F2FE3B11
:1056A0000D930021DDE90C230F46052060E1A8F1F0
:1056B0005803202B3FF631AD01A252F823F000BF72
:1056C0008B5800001B5100001B5100001B510000B3
:1056D0001B5100001B5100001B5100001B5100001A
:1056E0001B510000155600001B51000037580000E8
:1056F0004B580000155600001556000015560000C6
:105700001B5100004B5800001B5100001B510000B2
:105710001B5100001B510000915800008B580000E5
:10572000DB5700001B5100001B51000055570000C3
:105730001B5100008B5800001B5100001B51000042
:105740008B58000003994046D0470028C0F27B8266
:105750000135E2E4002E109F3BDB314638461CF059
:105760001DFD002F3FF4D9AC3E18F31B4FF000098C
:105770009DF84A2012F01001069100F05982023380
:1057800012F04002DDF84C80089218BF149ACDF850
:105790001C80434418BF9B18049A002A40F363827C
:1057A000D31A9DF8482004935007C2F3800B00F1F0
:1057B0005A82510640F14A82B9F1000F07D003998D
:1057C0004846D0470028C0F23E820135D9463022F3
:1057D0003DE23846FAF794FCC6E71098002800F03E
:1057E00022820DF17503009312AA17AB0021FFF777
:1057F0002FFCBDF84A3003F0EF0343F4F04343F0CD
:1058000010030746ADF84A304FF00009002E0CDBBC
:105810009DF848200DF17503DB1B6FF386129E4245
:105820008DF8482001D9F31A1393002F3FF475AC7B
:105830000DF175066DE0109B8DF85C304FF000099E
:105840000DF15D0617AF012392E7069B1F0758BFB6
:10585000C3F30019DDE9102354BF4FEA49194FF093
:105860002B09002B06DA524263EB4303CDE91023E8
:105870004FF02D090DF175030093DDE9100117AB11
:1058800012AAFFF7E5FB0746C0E74FF00009F1E772
:10589000109B07293FF641ACDFE801F00C04060C31
:1058A00008080C0C1D7038E41D8036E4EA17C3E9C3
:1058B000005232E41D6030E44FF02D09B7E64FF09E
:1058C0002B09B4E640F2FF70814231D108F10108A2
:1058D000A1495FFA88F8134311F8081001F0030199
:1058E0001ED101290BBF492369234E216E210CBF14
:1058F000462266228DF85C309DF848308DF85D10A8
:105900006FF386138DF85E208DF848300DF15F0639
:1059100017AFF31BB9F1000F3FF42AAF013327E7AC
:10592000012915BF6E234E23612141211A46E1E76B
:105930004FF0000C89E6921801F1FF3140414FF021
:10594000010C9FE6CDE90C20A5E6520842EAC3729D
:105950005B08B3F1333F59460BF1010BF5D200FB65
:1059600003FCA2FB002301F1020B6344013F012170
:105970001BF1020FE9DB09B1CDE90C23BBF1000FEC
:10598000DDE90C322EDCCBF10401A1F120000BF19A
:105990001C0B02FA0BFB22FA00F0CA40CB40079224
:1059A00008F0DF0243EA0B03472A43EA00037ED1F3
:1059B000F91C01DBBE422BDAA8F10208002E5FFAC7
:1059C00088F87DDD9DF84820920606F1FF3677D4F1
:1059D000B6F1000B18BF4FF0010B721C27E04FF01F
:1059E000000B5EE6023342F100020CA8CDE90C3256
:1059F00021F08BF8DDE90C320BF1FF3B0137DB18AE
:105A00005241002A0BF1FF3BF9DACDE90C32B5E740
:105A10009DF848209006A6EB07064ED4B6F1000B81
:105A200018BF4FF0010BF2194FF066084BD4102A43
:105A3000A8BF102210200B904FF000610020CDE98C
:105A40000E01DDE90E01002A3FD1079A1B1842EB37
:105A50000101B1F1805F47D2CDE90C31069BB8F16D
:105A6000660F03F0200240F0BE80002F47DC302399
:105A70008DF85C30002A71D1002E40F3B7812E23BF
:105A80008DF85D3087B17B42B342A8BF33469DF8A5
:105A90004A201393002BA6EB0306D4BF0023012357
:105AA00063F345128DF84A200DF15E0340E0B8F132
:105AB000660F4FF0000BB6D08FE74FF0000BB2E748
:105AC0004FF0000B89E70022B4E7400840EAC170BC
:105AD0004908CDE90E010EA8CDE9082321F015F8FB
