:10000000C0610020E5230000438D0000D1230000E3
:10001000D1230000D1230000D12300000000000004
:10002000000000000000000000000000C5240000E7
:10003000D1230000000000004D240000D123000067
:100040006D2600006D2600006D2600006D26000064
:100050006D2600006D2600006D2600006D26000054
:100060006D2600006D2600006D2600006D26000044
:100070006D2600006D2600006D2600006D26000034
:100080006D2600006D2600006D2600006D26000024
:100090006D2600006D2600006D2600006D26000014
:1000A0006D2600006D2600006D2600006D26000004
:1000B0006D2600006D2600006D2600006D260000F4
:1000C0006D2600006D2600006D2600006D260000E4
:0C00D0006D2600006D2600006D2600006B
:1000E0007BB972B90029BEBF00204FF0004106E085
:1000F00008BF00281CBF6FF000414FF0FF3000F038
:1001000057B8ADF1080C6DE904CE002909DB002BCE
:100110001ADB00F069F8DDF804E0DDE9022304B041
:100120007047404261EB4101002B1BDB00F05CF8A3
:10013000DDF804E0DDE9022304B0404261EB410157
:10014000524263EB43037047524263EB430300F0B8
:100150004BF8DDF804E0DDE9022304B0404261EB36
:1001600041017047524263EB430300F03DF8DDF874
:1001700004E0DDE9022304B0524263EB430370471D
:1001800053B94AB9002908BF00281CBF4FF0FF31FE
:100190004FF0FF3000F00CB8ADF1080C6DE904CE63
:1001A00000F022F8DDF804E0DDE9022304B0704736
:1001B000704700BF10F8012B11F8013B012A28BF3E
:1001C0009A42F7D0D01A7047034611F8012B03F872
:1001D000012B002AF9D17047034613F8012B002A9E
:1001E000FBD1181A013870472DE9F04786468C4636
:1001F0000846089E154674461946002B40F0C280FA
:100200008542B2FA82F245D94AB1C2F1200300FA1E
:1002100002FC2EFA03F3954043EA0C0C94404FEA9B
:10022000154EA8B2BCFBFEF8230C0EFB18CC08FB45
:1002300000F943EA0C43994528D9EB1808F1FF3738
:1002400004D2994502D9A8F102072B44A3EB090374
:10025000A4B2B3FBFEFC0EFB1C330CFB00F044EA23
:100260000344A04214D92C190CF1FF3304D2A0424C
:1002700002D9ACF102032C44241A43EA07401EB110
:10028000D440002334607360BDE8F0874746DDE763
:100290006346F1E792BB431B01214FEA154EAFB213
:1002A000B3FBFEFC200C0EFB1C330CFB07F840EAF2
:1002B0000343984562D9EB180CF1FF3004D29845FE
:1002C00002D9ACF102002B44A3EB0803A4B2B3FBA8
:1002D000FEFC0EFB1C330CFB07F744EA0344A74269
:1002E0004ED92C190CF1FF3304D2A74202D9ACF13C
:1002F00002032C44E41B43EA0040C0E7C2F12003A0
:1003000020FA03F1954090402EFA03F303434FEA9D
:10031000154EAFB2B1FBFEFC0EFB1C10190C0CFB12
:1003200007F841EA0041884504FA02F422D9691825
:100330000CF1FF3004D2884502D9ACF10200294407
:10034000A1EB08019BB2B1FBFEFC0EFB1C110CFBE8
:1003500007F743EA01439F420ED9EB180CF1FF3136
:1003600004D29F4202D9ACF102012B44DB1B41EACB
:10037000004192E76046E3E76146F7E76046A3E79E
:100380006346B7E7834206D916B9002108467BE7E2
:10039000C6E900E0F9E7B3FA83F78FB9834201D3E6
:1003A000724508D8BEEB020460EB030301209C46B3
:1003B0001EB9002168E73846FAE7C6E9004CF8E7BD
:1003C000C7F1200CBB4022FA0CF41C432EFA0CF1AE
:1003D00020FA0CF3B84001434FEA14490EFA07F52E
:1003E000B3FBF9F81FFA84FE09FB18300B0C08FB6D
:1003F0000EFA43EA00439A4502FA07F240D9E3189D
:1004000008F1FF3004D29A4502D9A8F10200234432
:10041000A3EB0A0389B2B3FBF9F809FB183308FB15
:100420000EFE41EA03418E452CD9611808F1FF33D5
:1004300004D28E4502D9A8F10203214443EA0040C8
:10044000A0FB0298A1EB0E014145CE46434602D3E4
:1004500006D14D4504D2B9EB020E68EB0403013816
:10046000002EA6D0B5EB0E0261EB030101FA0CFCE5
:1004700022FA07F34CEA0303F940C6E9003198E792
:100480004046C5E74346D9E7032973B505461446F8
:1004900060D8002A40D0072A5CD15A681C683848C6
:1004A000D1171346C4FB0031012B71F1000225DB8B
:1004B00000F56E1000F65D7018182FA3D3E9002325
:1004C00041F10001FFF70CFE80B202281ED0042883
:1004D0001ED008281ED0102833D1032329492A69A9
:1004E00051F823101161526814691B013022232135
:1004F0002846A44602B0BDE870406047224818185C
:1005000061F100011CA3D3E90023DBE70023E5E749
:100510000123E3E70223E1E71A881C4B33F8021BAF
:100520008A420BD12E6973680DF107029B68202166
:1005300028469847002807DA02B070BD01340B2C1A
:10054000ECD16FF01500F7E79DF80720130704D4EE
:10055000082C05D16FF08500EEE70A2C08BF0924AE
:10056000736802F00F0242EA0412DB68D2B2202163
:1005700028469847E0E700BF3AA395000000000036
:1005800040420F0014060020632EB5FFFCBA0000A5
:1005900070B58AB050680AF0D1FC04464FF0FF32C3
:1005A0004FF0FF330B4805F0E5FC2146684600F0AC
:1005B000F3FCDDE90056074805F054FD032C0CBFA1
:1005C0000548064833462A46214607F04AFD0020E2
:1005D0000AB070BDAC10002012BB000029BB0000A7
:1005E00030B5104D87B000F05DFB0FCD6C460FC4E9
:1005F00095E8030084E80300684600F07DFB05F001
:1006000059FB094807F02DFD08480AF0D3F800F01F
:1006100049FA00F0BDFA002000F070FA002007B09F
:1006200030BD00BF10B7000040BB0000AC10002080
:10063000F0B5ADF6141D04465C2200212CA80AF08A
:1006400075FC0F232B9301220223CDE93132CDE932
:1006500037333D9343934FF47A735C4303224FF453
:10066000004540F2E7300021E4FB05013E92002303
:100670004FF47A72FFF784FD494F4A4E05460C4607
:100680004FF0FF324FF0FF33384605F073FC2C99E2
:1006900003A800F081FC32990DA800F07DFC389988
:1006A00017A800F079FC3E9921A800F075FC3846A7
:1006B00005F0D8FC05A8FFF78FFD01300AF07FFB9D
:1006C00005A92D90FFF780FD14200AF078FBDDE9E5
:1006D00003233146309006F019FF0FA8FFF77CFD89
:1006E00001300AF06CFB0FA93390FFF76DFD142069
:1006F0000AF065FBDDE90D233146369006F006FF72
:1007000019A8FFF769FD01300AF059FB19A93990C2
:10071000FFF75AFD14200AF052FBDDE9172331469A
:100720003C9006F0F3FE23A8FFF756FD01300AF0D7
:1007300046FB23A93F90FFF747FD14200AF03FFB3B
:10074000DDE921231849429006F0E0FE4FF40063F2
:100750002BAA0093042144AB144800F00BFF44A9DA
:10076000134807F07EFC2D980AF022FB33980AF01C
:100770001FFB39980AF01CFB3F980AF019FB3098D0
:100780000AF016FB36980AF013FB3C980AF010FBAF
:1007900042980AF00DFB284621460AF0D7F86FE789
:1007A000AC10002060BB000067BB000084B70000F5
:1007B000F7BD00002DE9F043ADF24C4D05460C4667
:1007C0001022002103A80AF0B1FB022307934FF483
:1007D0007A735C434FF4004640F2E7300021E4FBBB
:1007E00006014FF47A7200230295FFF7C9FC214FEE
:1007F000DFF88480DFF8849006460C464FF0FF3225
:100800004FF0FF33384605F0B5FB294608A800F045
:10081000C3FB384605F026FC0AA8FFF7DDFC0130D3
:100820000AF0CDFA0AA90390FFF7CEFC14200AF0D3
:10083000C6FA032D14BF49464146DDE90823069058
:1008400006F064FE4FF4806302AA0093032112AB0A
:100850000B4800F08FFE12A90A4807F002FC03982B
:100860000AF0A6FA06980AF0A3FA304621460AF0E2
:100870006DF8C3E7AC10002067BB000060BB000050
:10088000C4B70000F7BD000010B5164C2378022B4A
:1008900014D1154807F0E5FB144805F043FF012388
:1008A0002370134C2378022B12D10F4807F0D9FB89
:1008B000104805F037FF0123237010BD012BF0D144
:1008C0000D4807F0CEFB094805F026FE0223E7E7B6
:1008D000012BF2D1084807F0C4FB064805F01CFEC6
:1008E0000223E9E7D51500206EBB0000A007002019
:1008F000D4150020D80600208FBB000038B5044670
:1009000038B9094D2B781BB1084801F089FD2C70CE
:1009100038BD074C2378002BFAD0064801F080FD43
:1009200000232370F4E700BFD5150020A0070020A6
:10093000D4150020D8060020F0B555684A4989B082
:1009400028461446FFF736FC38B9A0680AF0F6FAD4
:10095000464B1860002009B0F0BD45492846FFF716
:1009600029FC064600285FD1A068424D0AF0E6FA4D
:100970000F2824D12860404D2C78C4B93B4B1B680C
:10098000002000210622CDE90601CDE90242CDE991
:1009900000343A493A4B04944FF48052394805F0F8
:1009A000ABFC012320462B70FFF7A8FFD2E7022CF7
:1009B000D0D1344805F0B6FE01232B70CAE7A068F9
:1009C000314F0AF0BBFA2B68984226D0A0680AF093
:1009D000B5FA294B28601B78013B012B02D8304621
:1009E000FFF78CFF214B2A6819680023062000249A
:1009F0000025CDE90303CDE901130092CDE90645B9
:100A0000224B234923484FF4006205F075FC012076
:100A1000FFF774FF01233B709CE73B78022B99D1D1
:100A20001C4805F07FFEF5E71B492846FFF7C2FB8F
:100A300000288FD1144C2378012B07D1174807F0D9
:100A400010FB144805F068FD022323700A4C23783C
:100A5000012B7FF47FAF124807F003FB094805F034
:100A60005BFD0223237075E7AFBB00008010002000
:100A70003BBD000070050020D4150020401A002066
:100A800031060000D8060020D5150020B50700006B
:100A9000802A0020A0070020FEBD0000B1BB00009E
:100AA000C2BB000070B5114C2269A568136843F4FD
:100AB000006313602B680E4A0B2120469847AE69ED
:100AC00036B14FF080634FF0A0720B212046B04743
:100AD0000849094B4B604FF400638B60EB6923B10D
:100AE000BDE8704001480122184770BDB8B1000050
:100AF00011000100841000208908000010B5044690
:100B00000168064807F065F86168054807F061F874
:100B1000A1680448BDE8104007F05BB804B80000C5
:100B2000FCB70000F4B7000030B5174C174D8BB080
:100B30004FF0FF324FF0FF33204605F01BFA032140
:100B4000684600F029FA204605F08CFA009B6FF405
:100B50006072934214DB41F6FB72934212DCA3F500
:100B6000C87340F2125293FBF2F30C2000FB0350C7
:100B7000FFF7C4FF00214FF4004009F0E7FED7E77C
:100B80000023F2E70523F0E7AC10002074050020F5
:100B900008B5054807F031F8044807F02EF8BDE81D
:100BA0000840034807F029B804B80000FCB700006B
:100BB000F4B700000348D0E90123DB6A03B118470A
:100BC00050687047E0B100000146024883689B68A6
:100BD000184700BFE0B100002DE9F843194605466B
:100BE000002310463C22FFF7CBFA6B691A440C46EF
:100BF0003B2A214604DD0130A2F13C0244F1000110
:100C00006A6100233C22FFF7BBFA2B691A440C46A9
:100C10003B2A214604DD0130A2F13C0244F10001EF
:100C20002A6100231822FFF7ABFAEB681A44172A4F
:100C300004460F4604DD441CA2F1180241F10007EE
:100C4000DFF85C90EA604FF0010854EA070313D024
:100C50006E68731E022E59F8231005D1286806F01D
:100C6000E6FF002818BF1D21AB68C91ACA17A142A8
:100C7000BA4103D32344AB60BDE8F8830131641A61
:100C800006F1010667EBE1770C2EC8BF2B68C5F8AB
:100C90000880C9BF01336E60C5F804802B60D4E7BB
:100CA0000CB8000013B5104C204609F03DFD28B9E2
:100CB0000E4802B0BDE8104007F0D3B9A368204643
:100CC0001B68984701A8FFF77FFF019CFFF772FFA1
:100CD000074BB4FBF0F41822002106481C600AF010
:100CE00025F902B010BD00BFE0B1000027BC000034
:100CF000901000209410002037B504460FCC094D09
:100D00000FC594E8030085E8030001A8FFF75CFF26
:100D1000019CFFF74FFF044BB4FBF0F41C6003B0E1
:100D200030BD00BF94100020901000202DE9F0414C
:100D30008EB0074607A88846FFF746FF079E134D6B
:100D4000FFF738FF124BB6FBF0F61B68F61A0FCD13
:100D500008AC0FC495E80300324684E80300F3179B
:100D600008A8FFF739FF0D9B04930C9B03930B9B83
:100D700002930A9B0193099B0093064A089B4146F4
:100D8000384606F097FB0EB0BDE8F08194100020C5
:100D9000901000203DBC000030B50229556891B08C
:100DA000144626D91B492846FFF704FA08BB04ABB2
:100DB00000931949A06803AB02AA06F0CFFB07AB6A
:100DC00000931649E06806AB05AA06F0C7FB029B34
:100DD0000893039B0993049B0A93059B0B93069B23
:100DE0000C9308A8079B0D93FFF786FF002011B016
:100DF00030BD0B492846FFF7DDF90028F6D1202148
:100E00000DEB0100FFF792FF064808A907F029F94A
:100E1000ECE700BFAFBB00005BBC000064BC00009F
:100E2000A2BC00006DBC000000B5134C134D4FF484
:100E30004873ADF5537DE3610AAB23600023C4E939
:100E40000233C4E9053363602361284606F008FFD6
:100E50006A4628460E2106F000FF02A82021FFF76F
:100E600065FF28226946204607F0E9FA4FF47A70B8
:100E700006F0FAFEE9E700BFC0100020D0B2000083
:100E800000B51F4A1F4CADF2946D14AB4FF448717E
:100E900013600023D161C2E90233C2E90533536014
:100EA0001361194AC2E90233C2E90533D161DCA9F1
:100EB000116053601361204606F0D2FE6A46204658
:100EC0000D2106F0CAFE0AAA2046102106F0C5FE32
:100ED00002A82021FFF72AFF0CA82021FFF726FFF8
:100EE00069462822064807F0AAFA28220DEB0201DB
:100EF000054807F0A4FA4FF47A7006F0B5FEDAE779
:100F000000110020A8B20000E010002000B51F4A28
:100F10001F4CADF2946D14AB4FF448711360002375
:100F2000D161C2E90233C2E9053353601361194A42
:100F3000C2E90233C2E90533D161DCA91160536013
:100F40001361204606F08CFE6A4620461B2106F0FF
:100F500084FE0AAA20461D2106F07FFE02A8202159
:100F6000FFF7E4FE0CA82021FFF7E0FE69462822E7
:100F7000064807F064FA28220DEB0201054807F045
:100F80005EFA4FF4967006F06FFEDAE7401100202B
:100F900080B200002011002070B506468AB00329F7
:100FA00025D8DFE801F002090B0D1549304606F09F
:100FB0006BFE30460AB070BD1249F7E71249F5E7FB
:100FC0001249684606F060FE1149009C684606F02A
:100FD0005BFE009BCDE900436C460FCC35460FC548
:100FE0000FCC0FC594E8030085E80300E1E709484A
:100FF00007F037F828220021304609F097FFD8E79C
:1010000000110020E0100020C0100020401100203E
:101010002011002083BC0000014B1B68184700BF53
:10102000BC050020014B1860704700BFBC050020C4
:1010300030B585B004460D4610220021684609F0FF
:1010400075FF02238DF802302A46044B0193214696
:10105000684606F019FB05B030BD00BF191000004E
:1010600080B505460E461746984605F085FC0346B2
:101070000AF026F8DFF81890044649F80030424696
:1010800030463946A84754F8090001F0C9F900BFB5
:10109000080000002DE9F047058B0446280790461C
:1010A00011D4022905F0070540F0CC80204606F057
:1010B000E5FF78B10138218B042811D8DFE800F072
:1010C000C2106D85950001290CBF45F0100545F053
:1010D0002005258388F31188BFF36F8FBDE8F08763
:1010E00001F0070AAA4500F0A5800027B9463E4650
:1010F000A368002B00F0BC8041F00801218388F335
:101100001188BFF36F8FA168002900F0BA800D68C5
:10111000002900F0B680D1F80480334652462046BC
:10112000C047002D76D02B6829461D46F0E701F018
:1011300007035A1F012A1BD8002221F00701062BA2
:10114000276889B2C4E9002209D13B4603E0628BDB
:10115000013262831B68002BF9D141F00201218327
:10116000204606F08BFF00287AD041F0200176E07F
:10117000042B0AD121F0070189B22183204606F011
:101180007DFF10B141F020012183218B01F0070A7E
:10119000AA454FD00027B946AAE7236921F00701E5
:1011A00041F00601062DD3F8009021832DD1B9F12D
:1011B000000F3FD041F00801218388F31188BFF36D
:1011C0006F8F3A492046C84729E021F0070123697B
:1011D00041F0040189B2042DD3F804902183E6D0B4
:1011E00000273E464FF0040A82E721F007012369F9
:1011F00041F0050189B2052DD3F808902183D6D09E
:1012000000273E464FF0050A72E700273E464FF0A2
:10121000060A6DE72B4687E7B9F1000FD1D1EFF34E
:101220001188202383F31288BFF36F8F238B23F061
:1012300008032383258BEA062ED525F0100323838C
:1012400005F007056669218B002EBFF670AF0023FD
:101250002768C4E9003321F0070141F0010121832F
:10126000218B01F0070AAA454FF000097FF440AF37
:10127000002F9CD041F00801218388F31188BFF32F
:101280006F8F002FC8D03D683946334652462046FE
:1012900006F020FF2F46F4E7AB067FF51BAF25F0E5
:1012A0002003238305F0070500E700BF018100004C
:1012B0002DE9F3410C460646012113481546A04787
:1012C00000281ADB36685C27B04616F8010B38B9DF
:1012D0000D482A460121234602B0BDE8F0411847D7
:1012E00007F02DF860B18DF805008DF804702A46DE
:1012F000022101A8A0470028E6D002B0BDE8F08195
:101300002A4601214046F5E7BBBC00002DE9F14F1C
:101310000A9E054688461D489146012132461C46D4
:10132000984700282FDBDFF868A0DFF868B00027B7
:10133000B845324606D118480121234601B0BDE820
:10134000F04F184721462846FFF7B2FF00281ADB66
:10135000324601215046A047002814DB334622467E
:101360004946284600F01AF800280CDB08F1FF3344
:101370009F4202D301371035DAE732460121584641
:10138000A0470028F6DA01B0BDE8F08FBDBC000030
:10139000BFBC0000C1BC0000C3BC00002DE9F0418F
:1013A00014464279B0F806806D2A1D4688B00E4674
:1013B00001EB08074FEA520311D8212B16D9223B23
:1013C000142B13D8DFE803F02D121212121212128E
:1013D0001212121212123F656A127B4F5C00742BBC
:1013E00011D006D85B2B24D0662B0CD06FF01500E3
:1013F00026E07B2BFAD10095D0E9020123463A463C
:10140000FFF784FF1CE016F808302A4633B1304855
:101410000421234608B0BDE8F04118472D480521B6
:10142000F7E72A462146384608B0BDE8F041FFF705
:101430003FBF00950A4680682346394600F054F8BD
:1014400008B0BDE8F08151F80830234A0C2102A809
:1014500006F030F80028F3DB0B2817DC01462A469B
:1014600002A8A047ECE7D7E90023CDE900231B4AF7
:10147000152102A806F01EF80028E1DB1428ECE78D
:10148000D7E90023CDE90023154AF1E76FF00B00FF
:10149000D6E7796856F808002A46BAE711482A467E
:1014A0000121A0470028CBDB796856F808002A46BE
:1014B000A0470028C4DB0B482A460121A9E751F8C0
:1014C00008603046FEF788FE2A4601463046A0E70F
:1014D000C5BC0000CABC00006BBB0000D0BC000053
:1014E000D5BC0000BBBC00002DE9F14F0A9F1D4692
:1014F000C388044652F803A01B480E463A46012111
:10150000A84700282CDB637903F0FE03B62B08BF45
:10151000A468204606F0BCFE4FF0000881460AF1A0
:10152000FF3BD04507D111483A4601212B4601B077
:10153000BDE8F04F1847E1883B462A46711A20461D
:10154000FFF72CFF00280BDBC34503D84E4408F1FE
:101550000108E6E706483A460121A8470028F5DADF
:1015600001B0BDE8F08F00BFDABC0000DCBC0000B9
:10157000C1BC000010B586B00024CDE90334089B3F
:10158000059303AB0093024BFFF7C0FE06B010BDFE
:101590007B830000014B0360002070473CB80000D3
:1015A00013B5064A06481268002400940123214618
:1015B00000F0DAFA204602B010BD00BF3CB80000CF
:1015C000B4B6000037B544681249226004F108053A
:1015D00023640022284609F07AFA4FF4A472E463E7
:1015E000002328460C4DCDE90023002405F0CAFC59
:1015F00029460A4A00944FF48063012004F000FB5E
:10160000074A009410232946012004F027FB2046B6
:1016100003B030BDE5840000DEBC000005160020EC
:10162000F515002010B9034B18707047A420002155
:1016300009F08CB9D61500202DE9F843114ED0F8E9
:101640000490884614461D46042722464146012040
:1016500004F042FA58B101233370D9F80030D9F8B8
:101660004010012098472C600020BDE8F8833378B3
:10167000002BF2D0013F3846FFF7D4FF3378002B20
:10168000E3D1EAE7D615002010B58368D3F86831B6
:10169000DB07044616D4406803685B689847014638
:1016A00008B9A3681871A3685B6B0BB12046984713
:1016B000A36809F005FD0022C3F81022034B185857
:1016C00000F0AEFE6FF00F01EDE700BF0800000074
:1016D0000EB403B5044904AA019200F069FB02B0FC
:1016E0005DF804EB03B070478DBD000010B5836852
:1016F00002221A718268936B0446EBB982F8463075
:101700008268A2F842308268A2F840308368D3F839
:101710006831DB040BD50321084B094A07F016FAA0
:10172000A0686FF4805100F5B47006F0FEFE20460C
:10173000BDE8104000F0B0BC10BD00BFF6BC00001A
:101740003ABD00002DE9F04FA1B00446542200211B
:101750000BA809F0EBFB00230593A3682046463352
:10176000039307F06FF9204607F0FFF818B96249B4
:101770006069FFF7ADFFA06814220021083009F06E
:10178000D5FB00270DF12C0B4FF0FF383D46BA4634
:101790003E46B946059B012B61D0142D5CD1022B2E
:1017A0005DD1564B564A01210FE05946039A022358
:1017B00005A806F0BEFF05995BF8042F03920346C7
:1017C00031B101290AD148B14E4A204607F0BEF98D
:1017D0006FF00705284621B0BDE8F08FBAF1000F81
:1017E00006D15BF8041C06AA484607F072F80646C4
:1017F00008F1FF38EEB1F36893B1B446BCE80F00CE
:10180000A76808370FC7DCF800303B60B36833B90E
:10181000737CFE2B04BF96F8108008F1FF382F462A
:10182000B146059BB8F1000F01D1022BB2D10135B1
:10183000B0E715B14FF0010AF3E7A368DB6913B114
:10184000DB68002BF6D1304B0093304A0B9B012113
:10185000204607F07BF9EDE7B8F1000FA5D1B9F10B
:10186000000F0AD099F81130FE2B06D120AB03EB04
:10187000850353F8543C03B10135A0684369ED1B5F
:101880002BB9234A0121204607F060F9A0E7037E27
:101890009BB1417E4FF6FF72FF2918BF0A469D4259
:1018A00002D313449D4208D983681A4A0121204675
:1018B00007F04CF96FF015058CE7012106F069FE81
:1018C000A06800F5FE7006F07EFEA3680BAA29460C
:1018D0005B6902EB8702204698470546A06800F541
:1018E000FE704FF0FF324FF0FF3304F043FBA0686F
:1018F000002106F04EFE6DE78DBD00006BBD0000BF
:10190000F7BD00003DBD000057BD000051BD000007
:101910008FBD0000ADBD000070B50446806886B084
:10192000012100F5B47006F0F1FDA3681B79022BCC
:1019300020D100230193A36860689E6B03681D6932
:1019400001AB0EB3102202A9A847019B93B1A06876
:10195000012106F01EFE019A02A92046B047A068A8
:10196000002106F016FEA3689B6B002BE3D12046F6
:10197000FFF7BCFEA0686FF0010100F5B47006B07F
:10198000BDE8704006F0D1BD01220DF10301A8476A
:10199000019B002BEED09DF903209DF80310A36856
:1019A000002AC8DB5A79032A00F28180DFE802F0BE
:1019B0000278817F0D2940D00A2921D0B3F868210F
:1019C0006FF3CA02A3F868210929A0684AD007D892
:1019D0000029B0D0082948D00346D3F86431AAE7DB
:1019E0001B293CD07F294BD020395E290346F4D8EF
:1019F00006F0CAFD9DF80310204600F015FB9AE79B
:101A0000D3F86821C2F3C7022AB1D3F86821C2F320
:101A1000C7020A2AE1D1B3F8682161F3CA02A3F828
:101A20006821A568B5F840309BB94E496069FFF759
:101A30004FFE2046FFF75AFE7DE7D3F86821C2F338
:101A4000C702002AE7D0D3F86821C2F3C7020D2AE3
:101A5000E0E72046FFF776FEC5F81402E9E7012328
:101A6000437168E7D0F8643165E7D0F864319B07CB
:101A70007FF561AF06F088FD204607F0CEF85AE703
:101A8000D0F864319E077FF556AF06F07DFDA36860
:101A9000D3F864311D07EFD4204607F09FF84AE7DA
:101AA0005B2902D102225A7145E7D3F86421002252
:101AB000F9E700225A71A268D2F8643198077FF5DD
:101AC0003AAF34290CD830297FF635AFA1F1320373
:101AD00003215171022B2FD8DFE803F0323C2A009A
:101AE000A1F14303DAB2092A3FF625AF092B3FF6ED
:101AF00022AF01A252F823F0211B0000291B000095
:101B000037190000311B000037190000391B000095
:101B1000371900003719000037190000411B000079
:101B2000204606F0A1FF06E7204606F094FF02E7F4
:101B3000204606F087FFFEE6204606F07CFFFAE628
:101B4000A068D0F8641101F0010181F0010106F0F4
:101B50002BFDF0E6A368D3F864319B077FF5EBAE6D
:101B60009AE700BF8DBD00002DE9F047044680686C
:101B70000F46D0F8101288B015461E46002968D1CD
:101B800090464FF4067209F0D1F9A06800F5FE7096
:101B900008F010FE4FF4D67A4FF4B679A0684844A6
:101BA00009F0D6F8A068002200EB09030121504497
:101BB00009F1100909F09EF8B9F5D67F0AF1140A67
:101BC000ECD1A068022100F5B47006F09FFCA36878
:101BD00050225A85A36818221A85A36822681A60C1
:101BE000D4F80890D9F8000010B1FEF7F5FA80B2E9
:101BF00089F82C00A368184A25F0140565F3070836
:101C0000C3F864816068036839461D682346A847A5
:101C10000546D0B9A36801221A71D4E9090100224E
:101C20000023CDE906230E230393109B0495CDE9F1
:101C300001630094094B4FF4806204F05DFBA368DC
:101C4000C3F81002216A04F0BDFA284608B0BDE8C6
:101C5000F0876FF07705F8E775850000B11C00008C
:101C600038B5044680680379012B19D140F26762C8
:101C7000002300F5FE7004F07DF9054698B90B4984
:101C80006069FFF725FD2046FFF730FD204606F08E
:101C9000D7FFA06800F5FE7006F095FC284638BD19
:101CA0006FF08505FAE76FF00F05F7E78DBD0000CF
:101CB000F8B504468068154600F5B470002935D0A3
:101CC0004FF4804106F022FCA368DD63606803687E
:101CD00000219B689847002848D12046FFF7C0FFA5
:101CE000002843D1224E234FA06800F5D6704FF054
:101CF000FF324FF0FF33032105F0AEF90546A0682F
:101D000000F5FE70BDB140F26762002304F032F9C5
:101D100060BB20462B46184A012106F017FFA06839
:101D2000BDE8F84000F5FE7006F04DBC6FF4804150
:101D300006F0FBFBC8E74FF0FF334FF0FF3204F033
:101D400019F932460221204606F0FEFB20463A46AB
:101D5000294606F0F9FB606803685B6903B19847A0
:101D6000A06800F5FE7006F02EFCBDE7F8BD00BFD0
:101D70008916000019190000C8BD000070B50A4995
:101D80000A4E044606F067FC0021002210464D1C56
:101D900000F022F8034600B970BD31461A682046AB
:101DA00006F059FC2946F0E7DFBD0000F5BD000054
:101DB00010B5044613460A460146064800F0C0FD29
:101DC00023691B7923B12046BDE8104006F051BCC1
:101DD00010BD00BF8B86000038B50B46154648B9CC
:101DE0001449154A521AB3EB920F05D251F82350F9
:101DF000284638BD84680CB90025F9E70F4A94429B
:101E00000AD30F4A944207D21846226829469047BF
:101E10002B68002BECD1EFE70A4A944202D30A4A1E
:101E2000944205D3246814225343E518E358F0E79D
:101E30000133F8E7E0B60000F0B6000004B7000098
:101E400004B70000F0B6000004B700008368D3F8C0
:101E500064319B0603D50249406906F065BD7047B1
:101E600030B70000014906F05FBD00BF8DBD000026
:101E70000A1E0DDC0ED042238168D1F86411890658
:101E800008D5002A04494069B8BF524206F04CBD4B
:101E90004123F1E7704700BF19BE00000A1E0DDCA8
:101EA0000ED044238168D1F86411890608D5002A30
:101EB00004494069B8BF524206F036BD4323F1E7FA
:101EC000704700BF19BE00002DE9F0478568DFF8B4
:101ED0006890044605F14600FEF77EF9002395F868
:101EE0002C7086B29846A268558DED1BB54209DB71
:101EF000002E1FDD463360691049BDE8F0471A44E3
:101F000006F012BD1D442A44463392F846A082F8DA
:101F10004680A26860691A44494606F005FDA36838
:101F20002B4483F846A0A3685B8DDB1BF61A0027C1
:101F30002B46D8E7BDE8F087F7BD00003ABD0000AA
:101F40002DE9F84F05460F4690460AB1FFF77EFF90
:101F5000D5F80890D9F86431B9F842605B0724D508
:101F600006F146004844FEF737F92C4E0446B4B952
:101F7000AB68B3F84020A3F84220A86806F0E1FC63
:101F800030B1B8F1000F00D017B16869FFF76AFFF0
:101F90007942284609B2BDE8F84F06F023BD6869CA
:101FA000314606F0C1FC013CE1E7D9F80000B9F880
:101FB00040A010B1FEF710F980B2B9F82A3082447F
:101FC0008419B4FBF3F2BAFBF3F39A42B3461CD084
:101FD000134EAB685445CBDA5A8DB4FBF2F302FBD7
:101FE000134304F1010913B96869FFF73BFFAB68BC
:101FF0005B440BF1010493F8463032460821284631
:10200000A34606F0A3FD4C46E3E74636054A09EB36
:1020100006030821284606F099FDA9E720BE000026
:102020001DBE00003ABD000013B583688DF807108F
:10203000D3F864210446D00725D5B3F84210B3F88D
:1020400040208A421FD0481CA3F842000B449DF850
:10205000072083F84620A368D3F86411890710D5B8
:10206000D3F8643160690B4913F0040F18BF2A22BA
:1020700006F05AFC204606F078FC10B16069FFF7C4
:10208000F1FE02B010BD01220DF10701204606F05D
:102090006BFDF6E71DBE000010B58368094A1B689A
:1020A0000446022106F052FDA368D3F864319B0771
:1020B00007D52046FFF708FF2046BDE8104006F090
:1020C0006CBC10BD3ABD000030BFFFF7FDBF00BFC4
:1020D0002DE9F0410B4EDFF8308006EB0807CC1BF2
:1020E000054632460949204608F0F8FEA019424646
:1020F0000021083C08F01AFFC5F8B84007F10800B5
:10210000BDE8F081000000000800000004B70000F6
:10211000054BDA699B689A421FBF044A536843F033
:1021200080535360704700BF700E002000ED00E048
:1021300070B5264B15469A6A12F0100F9A6A14BFB2
:102140001124102412F0080F9A6A18BF1224920763
:1021500006460AD5586B9A6A140634D519B19A6A9C
:1021600022F080029A62132401E06FF01500174BF1
:102170009A6A12F0010F9A6A18BF142412F0200F05
:102180009A6A18BF1524D20602D49B6A9B070AD507
:102190000E4B5B68190506D5314600F019FA10B1EF
:1021A00080F309880224094B9A6A920642BF5A6A50
:1021B00022F400525A629A6A42F0FF029A620023A5
:1021C0002B70204670BD6FF01500CCE700ED00E0ED
:1021D000134B9A6A12F0007F9A6A14BF1E201D20CA
:1021E00012F0807F9A6A18BF1F2012F4002F9A6A9B
:1021F00018BF212012F4802F9A6A18BF222012F4EF
:10220000003F9A6A18BF232012F4803F9A6A6FEA4F
:1022100002426FEA12429A6218BF2420704700BF40
:1022200000ED00E010B5194B0246986A9C6A10F464
:10223000805F14BF1720162014F4006F9C6A18BF2B
:102240001820A40509D5986B986A000404D51AB122
:102250009A6A22F400429A6219200C4B9A6A12F48C
:10226000806F9A6A18BF1A20D2050CD49B6A13F4A7
:10227000005F18BF1C20054A936A43F47F439362B2
:1022800000230B7010BD1B20F5E700BF00ED00E040
:10229000F0B5484B5B688BB00446C3F308030025D8
:1022A00085F31188BFF36F8F02F07F40B0F17F4F4D
:1022B00011D102F00C0008280DD010074CBF0C46BD
:1022C00001250022033B8DF80720032B05D8DFE80A
:1022D00003F0246367602C46F3E700239DF8072092
:1022E000CAB902AE04F1200720686168324603C211
:1022F0000834BC421646F7D1099A002D54D0C2F3D7
:10230000080121B96FEA52226FEA4222099202A91A
:10231000184606F00CFD0BB0F0BD264BDA6A9107AB
:10232000DBD4DA6A002AD8DBDA6A5200D5D55A69DA
:10233000A16942F480725A61BFF34F8FBFF36F8F70
:102340005A6931F8021C22F480725A61BFF34F8F30
:10235000BFF36F8F4DF6027291420AD09A6AD2B2E1
:102360004AB10DF1070201212046FFF7E1FE0346C5
:10237000B4E72368B2E79A6A12F47F4F05D00DF1F3
:1023800007010120FFF74EFFF1E79B6AB3F5803F9D
:10239000A3D3FFF71DFFEAE70DF107020021E3E7F2
:1023A0000DF107010020EDE722F4FF7222F0010297
:1023B000ACE700BF00ED00E0044B5A6942F01002A8
:1023C0005A615A6922F008025A61704700ED00E034
:1023D000EFF30880EFF3098101B57246FFF758FF6C
:1023E00001BD00BF02F01AF9202080F311880B48CC
:1023F0004FF0AA014FF4046208F0C4F907484FF403
:102400000461401880F30988EFF314800221084327
:1024100080F31488BFF36F8F00F09AF80054002007
:10242000084B9B6883420BD1EFF3058343B1064B06
:102430005A6842F080525A605A6A22F400425A6244
:1024400004F0A0BA700E002000ED00E001B508F025
:10245000CEF9BDE8014018498A684FF040001044A9
:10246000EFF3098C80E8F01F202080F31288BFF37F
:102470006F8F124F4FF00066CA698A603E60D2F8D3
:10248000B8000F4C2060D2F8BC000023C2F8BC306A
:1024900080F3118804B5104600F006F9BDE8044049
:1024A00002F1400090E8F01F8CF3098801B503F0B9
:1024B0004FFFBDE801407047700E002004ED00E0C2
:1024C000781300201EF0040F0CBFEFF30880EFF329
:1024D0000980816911F8021C0229FFD001B57246FA
:1024E00006F02BFC01BD00BF40B2002807DB044A08
:1024F0004109012300F01F00834042F8213070475A
:1025000000E100E0054B420900F01F0053F82220D3
:10251000012303FA00F01040704700BF00E100E023
:1025200040B20028A8BF00F1604001F10101B8BF2E
:10253000064B4FEA4111ACBF00F5614000F00F00BF
:10254000C9B2B4BF195480F80013704714ED00E00D
:102550000F4A08B50F4B22F07F029A60BFF34F8FEE
:10256000BFF36F8FD3F8882022F47002C3F888205D
:10257000EFF3148323F0040383F31488BFF36F8F06
:1025800003F03EFC04F058FB00F064F803F08AFC12
:102590000000000000ED00E042F8203C009B42F803
:1025A0001C3C0A49019B42F8183C029B42F8143C2F
:1025B00021F001014FF0807342F8043C42F8081CFE
:1025C0000023203A0266C0F8BC307047611000005A
:1025D0000A4A0346906878B113F1160FD0F8A800A4
:1025E00005D0A0F140029A4205D8834203D281422D
:1025F00028BF002070470020704700BF700E0020E9
:1026000008B50D4B98600D4B04461546D0F8B82020
:102610001A600E4603F09CFE204600F045F82C465A
:1026200086F309880020064B9847204600210022A7
:102630000023044C204700BF700E002078130020B8
:10264000598D000061100000014B10221A61704783
:1026500000ED00E0044800232021C2180133272B9D
:1026600082F80013F9D1704700E100E008B5EFF3FC
:102670000583064A103B02EBC30152F83300496858
:102680008847BDE80840FFF743BD00BFF8B200002F
:10269000024B034A0348012100F078B800000120F2
:1026A0000000002080B80000D0F8A820054B403A78
:1026B0001A60054A4021C3E901121846012100F0C1
:1026C0006FB800BF7C13002000000B15084AC2F849
:1026D00098000B6823F01F03034343F01003C2F874
:1026E0009C308B6843F00103C2F8A030704700BFF4
:1026F00000ED00E02DE9F043DFF8608085B00E4684
:102700001F4604464FF00009B14523DA6068D8B18E
:102710003FB1411E08421BD11F2819D92368194215
:1027200016D12368019306F03AFBA3680343039391
:10273000D8F89050C5F30725D0B2013DA84207D87C
:1027400001A9FFF7C3FF421C09F101090C34DBE7C3
:102750006FF01502104605B0BDE8F08300ED00E013
:10276000044B0522C3F89420BFF34F8FBFF36F8F44
:10277000704700BF00ED00E0BFF35F8F024B002207
:10278000C3F89420704700BF00ED00E010B5034C83
:1027900001232278FFF7AEFF207010BD051A00203C
:1027A00008B50B4A00231278FFF7A4FF10F1160FAB
:1027B00007D0084A0021D2F89030C3F3072398428B
:1027C00000DB08BDC2F89800C2F8A0100130F2E7A3
:1027D000051A002000ED00E02DE9F043534B544C66
:1027E000D3F890302568C3F307239D4285B000F2EB
:1027F0009A80FFF7C1FF00200C2685421AD14D4C6C
:102800004D4F25706846FEF7C5FEDFF82081DFF8E2
:102810002C9106460025AE4213D12378434900206F
:10282000D1F89020C2F30722934276DBFFF798FF9E
:10283000002042E0616806FB0011FFF747FF01300E
:10284000DBE7009800EB05114FEA051CCB683B4025
:10285000B3F5000F48D00AD8B3F5001F30D0B3F558
:10286000800F36D0B3F5801F10D00135D3E7B3F118
:10287000807F42D0B3F1007FF7D150F80C308868E8
:102880004A6806F08CFA40F4802009E050F80C30D9
:1028900088684A6806F083FA40F0885040F4302097
:1028A000CDE901230390D8F890302078C3F30723B3
:1028B000013B98422AD96FF0150005B0BDE8F083BE
:1028C00050F80C3088684A6806F069FA40EA090056
:1028D000E6E750F80C3088684A6806F060FA40F085
:1028E000E06040F40030DBE750F80C3088684A685C
:1028F00006F055FA40F08270D2E750F80C30886844
:102900004A6806F04CFA40F08870C9E701A9FFF761
:10291000DDFE237801332370A7E7C1F89830C1F8B2
:10292000A00001337CE74FF0FF30C6E700ED00E088
:102930008CB80000051A00200000F0FF000008110C
:10294000F0B587B007460E461446002110226846AF
:102950001D4608F0EBFA02238DF802302A46054B9B
:10296000019321466846CDE9047604F08DFE07B058
:10297000F0BD00BFBF8D000008B5024B1B68984733
:10298000002008BD88130020034B044A1860937888
:1029900043F002039370704788130020D005002095
:1029A00008B50649064821F00701C1F1005202F5B9
:1029B000803205F017FB002008BD00BF476E0020E5
:1029C0008C130020024B0122C3F8402500207047E1
:1029D00000E0014020B1034B800143F001031847A0
:1029E000704700BF40B7000010B50E4C204607F0FE
:1029F0009BFE98B12269A168136823F48063136079
:102A00000B684FF420220A2120469847002804DB57
:102A10002120002107F09AFF002010BD6FF0120066
:102A2000FBE700BF58B2000014280ED8084A12F87D
:102A3000103053B102EB4002527832B10868434380
:102A4000002093FBF2F30B6070476FF015007047A6
:102A500031BE0000054B0122C3F8002590F8861016
:102A600009B1DA6070471A605A6070470070004020
:102A70002DE9F0410D7905F01F03072B1DD80C78C7
:102A80000C2C1AD8DFE804F00808081907191C19DB
:102A9000191E2019220003244A78032A18D0042A78
:102AA0000BD100204A8844F20A06B24264D843F6A9
:102AB000FE76B2420ED8002A6CD06FF0150057E0B7
:102AC0000424E9E70524E7E70624E5E70724E3E72C
:102AD0000120E7E7A2F57F523F3A0B2AEDD801A685
:102AE00056F822F09D2B0000BB2A0000BB2A0000F4
:102AF000BB2A0000152B0000BB2A0000752B00002C
:102B0000BB2A0000BB2A0000BB2A0000BB2A000031
:102B1000952B00000022224F8E7997F8A8C04FF025
:102B20000108000308FA03FE40EA042015F020051E
:102B30005FFA8EFE40EA02404FEA031214BF2CEA0D
:102B40000E0C4CEA0E0C02F1804287F8A8C002F588
:102B5000E04218BF45461F44497987F8A01040EA73
:102B60000550C2F818050020C2F81005C2F8146517
:102B7000BDE8F0810122CEE744F21406B2420BD048
:102B800044F22806B24209D044F20F06B24294D170
:102B90000322C0E70222BEE70422BCE70522BAE70F
:102BA000C0040020F7B50D464FF0FF335B484FF0EF
:102BB000FF3203F0E1FA6E68731EFE2B44D8002347
:102BC0005748584F1A4626FA03F111F0010126D052
:102BD00017F803C0BCF1000F36D000EB031E6C7C6D
:102BE000DEF81815003C18BF012421F0807141EA7D
:102BF0000461CEF8181503F151010901013240F8C2
:102C000001C0D2B20133082BDDD12B7C083B062B4F
:102C10001AD8DFE803F0111925192119230000EB58
:102C2000031CDCF8184524F08074CCF8184503F137
:102C3000510424010151E5E700233949012AC1F873
:102C4000F0356B7C0ED97BB16FF01504334803F07F
:102C500059FA204603B0F0BD0223EEE70323ECE768
:102C60000123EAE7082BEFD8C1F8F43529685300AF
:102C700011B1898901FB0333E96899424AD3284B92
:102C8000A968C3F82C162F46C3F830260FCF264C60
:102C900004F174060FC63B683360002626672B6874
:102CA00027469BB30FCB04F1880585E80F006567C5
:102CB000A4F8986050B3BFF35B8F57E8003F47E834
:102CC0000062002AF9D1BFF35B8F1849D4F888500D
:102CD000174A4FF400400F463146E5FB00710023D0
:102CE0003846FDF74DFA0022CDE90001002304F13A
:102CF000080004F047F90F484FF0FF324FF0FF3360
:102D000003F03AFA00B12067246F9FE70648FFF707
:102D1000A1FEF0E76FF00B0498E700BF000500206C
:102D20000070004060050020C00400203F420F00FA
:102D300040420F001805002038B5104C0025C4F89B
:102D40000451D4F80431C4F81051D4F810311223CE
:102D5000C4F804330720FFF7C7FB2A4601210720E8
:102D6000FFF7DEFB0648836C13B9403003F0CAF965
:102D70000123C4F80035002038BD00BF00700040BA
:102D8000C0040020F8B53C4BD3F80421002A66D0DB
:102D90000021C3F80411D3F80421384C01229A60B1
:102DA000C3F80015A66F94F8A8703742254606D1DF
:102DB000636FC3B93248BDE8F84003F0A3B9D3F854
:102DC0002C16F6B213461E4208D01F4205D0B1F9A8
:102DD0000020002ABCBF00220A8002315B009BB2A7
:102DE0009F42F0D2E4E7D4F88C30B4F898202BB1AD
:102DF00024499847012814D0022828D0B4F89830E4
:102E0000B4F894209A4222D90133A4F898301A4B8E
:102E1000D3F82C26D3F8341689B202EB4102C3F85A
:102E20002C26D4F8883023B9BDE8F8401348FFF7C2
:102E300011BEBFF35B8F55E8003F5A1E45E80021E5
:102E40000029F8D1BFF35B8F012BEDDCF8BDD4F87E
:102E50008830002BAED00C4807F045FEAAE7D3F827
:102E600010110029F2D0C3F81021D3F8102101224B
:102E70009A601A605A60E9E700700040C0040020C0
:102E80001805002034050020C8040020084B70B548
:102E9000C31A0D4607499B10044659430648402271
:102EA00005F0B8FF2B4601462046BDE870401847A4
:102EB000AC130020B76DDBB6A4B1000073B50C4CA9
:102EC0000C4A4023041B00930D460B460A49A410EC
:102ED00061430646094805F0C9FF011E05DA304680
:102EE0002B4602B0BDE87040184702B070BD00BF6D
:102EF000AC130020D78E0000B76DDBB6A4B1000084
:102F0000002270B5012104461046FFF709FB0F4867
:102F100001F03CFD0E4B984215D101F047FD2669AA
:102F20000C49304605F0F9F800280BDB0125356423
:102F30002469084904F11C0005F0EFF8002801DBC2
:102F4000E564002070BD6FF00400FBE7B1300000C5
:102F50000000AD0BACB800007FB500220123CDE925
:102F6000022304ABCDE90433094ACDF800D06B4607
:102F7000CDF804D005F0A8FF002805DB4FF480420F
:102F80000023684603F0F8F807B05DF804FB00BFC3
:102F9000EF8E000010B5074C23782BB94FF4A570C5
:102FA00007F0BDFB01232370BDE81040002001F0B5
:102FB0000FBD00BF061A002010B5EFF311842023C7
:102FC00083F31288BFF36F8F074A136823F002015F
:102FD000DB07116002D4012007F036FA84F3118870
:102FE000BFF36F8F10BD00BFFC13002030B4104B37
:102FF0000C2202FB003301460020D3E90E529863F5
:10300000EFF31180202484F31288BFF36F8F1C6CC0
:1030100004F0C00444F002041C6480F31188BFF380
:103020006F8F1DB12B46034830BC184730BC70472A
:10303000AC130020A4B1000010B4EFF311822023E0
:1030400083F31288BFF36F8F1748016841F00204C1
:103050000460C80707D482F31188BFF36F8F012083
:1030600010BC01F0B5BC4FF08041D1F80C04D1F890
:103070000C14C907EFD5EFF3118083F31288BFF367
:103080006F8F0A490B6C03F0C00343F002030B641B
:1030900080F31188BFF36F8F82F31188BFF36F8FB6
:1030A000002010BCFFF7A2BFFC130020AC130020CF
:1030B00010B1012804D07047034B1B6C5B0701D192
:1030C000FFF794BF704700BFAC130020024AC3B2A1
:1030D0001C2003FB00207047AC1300202DE9F041B9
:1030E0003849BFF35B8F0746012251E8003F41E8B2
:1030F00000200028F9D1BFF35B8F33B93249334840
:103100004B60CB608A6005F01BF87B1E012B2BD82F
:10311000012F07D14FF08043D3F81C3403F0030391
:10312000012B21D007F05DFB0546F8B9284B1B7831
:10313000E3B14FF080430222C3F808230646DFF8CC
:1031400094804FF08044D4F81824D4F81834D20373
:1031500015D503F00303012B01D0012F0FD155B377
:1031600086F31188BFF36F8FBDE8F081EFF311860E
:10317000202383F31288BFF36F8F0125DFE7ADB102
:10318000304605F0FDFDD4F81835002BDBD1D4F81E
:103190000421002AD7D0C4F80431D4F80431012323
:1031A000C4F81835C8F88031A360CCE7002121208D
:1031B00007F0CCFBE7E74FF080430222C3F804237B
:1031C000D2E700BFA813002098130020C8130020E6
:1031D0002A1A002000E100E010B5044C2046FDF75B
:1031E00021FF2046FFF7D0FB002010BDF131000089
:1031F00073B5104E8DF807000446032501220DF12A
:103200000701002002F0D8FC20B1012333702046D2
:1032100002B070BD3378002BF9D0013D08D007F023
:10322000E0FA0028EAD10021422007F08FFBE5E711
:103230003570ECE7071A002010B503694468BFF346
:103240005B8F012202FA01F1103353E800CF4CEA00
:10325000010C43E800C00028F7D1BFF35B8F23695E
:1032600043F30733002B08DB590903F01F039A408F
:1032700001F14003014941F8232010BD00E100E0C5
:1032800038B545682B69B3B11035284601F08CFE7E
:10329000044680B90146284601F052FE084B984288
:1032A0000BD108492246284601F032FE224605216C
:1032B0000620FFF735F9002038BD6FF00400FBE76A
:1032C0000000AD0BC9320000430970B507D10B4BAC
:1032D000596821B101250C68094E854001B970BDBE
:1032E0008A682A4002D04B68304698471CB1236850
:1032F00021461C46F2E72346FAE700BF34140020BB
:10330000B8B100002DE9F043476840F20636D00618
:103310003B7B87B002EA060654BFC2F3401003208D
:1033200001F01F05B6F5837F144645EA43158DF875
:10333000030043D00FD8062E18D007D8B6B1022EFE
:103340003ED06FF0150007B0BDE8F083B6F5807F82
:10335000F7D101260AE040F20222964232D0B6F5B9
:10336000407F31D0B6F5007FEBD102260123220346
:1033700003FA01F12AD57B68C3F808153B695BBBEA
:1033800005F01F026D0974D1920002F1A04284F48D
:103390008031D2F80037C1F30041C4F3404423F434
:1033A000E16344EA410423F007031C4344EA800438
:1033B00044EA0624C2F800470020C4E70726D5E700
:1033C0000426D3E70526D1E70326CFE7630344BFEE
:1033D0007B68C3F80C15D1E710370DF102022946BE
:1033E000384601F09BFD14F4403F80460CD129463D
:1033F000384607F09BF8214B9845DDD19DF8021027
:10340000384601F0DBFDD7E701AB4FF0000903AA16
:1034100029463846CDE90439CDE90199CDF80C901B
:1034200001F050FC154B98428BD114F4003315D0A9
:103430009DF803308DF80E3084F48034C4F30044DA
:103440004B4603AA294638468DF80C608DF80D408E
:1034500001F0E8FC094B9842CDD072E7CDE9043386
:1034600003AA0DF1030329463846039301F02AFC11
:10347000F0E702F5E07253F82230FFDE0000AD0BFA
:10348000F0B54068057B01F01F0444EA4514056966
:1034900087B0002D60D0B2F5001F00F1100506D1F5
:1034A0002146284607F044F8002007B0F0BD01AEE1
:1034B0000027B2F5800F0197776038D1B3F1007F14
:1034C00014BF052304238DF804300023CDE90463E1
:1034D0000393836823FA01F111F0010119D1B2F1CC
:1034E000A07F16D104F01F03620903F5E07339D100
:1034F0004FF0A04252F82330DB070AD40DF1030647
:1035000032462146284601F009FD184B984219D051
:10351000029603AA2146284601F0D4FB144B984298
:103520001DD101222146284601F054FDBCE7B3F12C
:10353000C06F05D0B3F1007F14BF01230223C2E79F
:103540000323C0E73146284601F03EFD084B984270
:10355000DED06FF00B00A8E76FF08500A5E76FF0F5
:103560001500A2E751F82330FFDE00BF0400AD0BC9
:103570000000AD0B02780B69012A08D0022A08D09E
:103580004AB9064A1A6303F1180002F0BBBD044AA7
:10359000F8E7044AF6E7044AF4E700BF0000AD0B81
:1035A0000100AE0B0200AE0B0100AD0B2DE9F04F98
:1035B00087B00546049343680769D3F828909B8B2E
:1035C00003930C4690464FF0FF324FF0FF333846DE
:1035D00002F0D2FD07F1180302930023002207F145
:1035E0001800002602F0C8FD3346464501D30023EB
:1035F0004DE0207A010775D40136464521680BD28B
:10360000820709D4227D80EA020C0CF0010C02F042
:1036100004025CEA020C08D023B901F06042B2F166
:10362000005F1AD04FF0000A01E04FF0010A626813
:10363000DDF80CE003EB020CF44556D8C00705D4C6
:1036400009EB0300059307F049FC059B62681A44E7
:1036500093B2BAF1000F2ED113BBD4F800B0A388F7
:103660004FF0000A049A217A009228465A4600F048
:1036700061F8031E0BDB4FF480420298002302F036
:103680007BFD80B1284600F035F86FF0040302930B
:10369000384602F037FD029B184607B0BDE8F08FB0
:1036A0009A46CB46DEE73B6B114A9342EDD1237A33
:1036B000DB0702D400230C3497E7CB45FAD1A346AD
:1036C00009E0AAEB02011FFA81FADBF80C0019FAF3
:1036D00081F107F003FCDBF804209245ABF10C0B01
:1036E000EFD2E7E76FF08503D1E76FF01B03CEE77A
:1036F0000000AD0B70B544682368D3F80855D3F8C3
:103700000C65204601F0EEFE3146284602F000F935
:1037100000210546606A06F0BDF8204601F0D2FEA1
:10372000034B9D4214BF6FF00F00002070BD00BF1F
:103730000000AD0BF0B587B047680C461646002177
:1037400012220DF106001D4607F0F0FB04F0010304
:103750008DF80430BDF830308DF80530BB8D029502
:10376000AB42049614D384F00202C2F34002520129
:1037700001A9384601F0F8FE084B98420BD00B33F4
:10378000984214BF6FF004006FF00F0007B0F0BD57
:103790006FF01B00FAE70020F8E700BF0000AD0B58
:1037A00038B545682B6A04469847686A012106F0D7
:1037B00071F82346AA6905F10801284601F046FE82
:1037C000064B984206D10121204606F089F800EA0E
:1037D000E07038BD6FF00400FBE700BF0000AD0BE8
:1037E0002DE9F047DFF808C1424F002540F2FF16EF
:1037F000EBB2994202D80020BDE8F08750F825408E
:1038000014F4804FC4F3C32EC4F3080360D1240E14
:1038100017F80E90B34208BF4FF0FF330C2C5AD864
:10382000DFE804F0070D1417595959595959591A15
:103830004800C2F80C355C1C3FD10135D8E7C2F80E
:1038400014355C1CF9D04FF0000810E0C2F80835C0
:10385000F1E7C2F81035F4E7C2F80835B9F1000F06
:10386000EFD15C1CE9D04FF000084FF0060950F88A
:1038700025A00AF40044002C16BF4FF00008C646ED
:103880004FF0010E03F01F045B092BD1A40004F1DB
:10389000A044CAF3412AD4F8003703EA0C0343EAF0
:1038A0008A0343EA092343EA080343EA4E03C4F8C0
:1038B0000037C2E7C2F80C35D0E75C090ED14FF0F3
:1038C00001084FF0A04408FA03FEC4F808E5CEE76B
:1038D0006FF0150090E76FF085008DE70023C3F8C7
:1038E0000835FFDE04F5E074002353F82430F8E7D0
:1038F000F0F8FCFFBCBE000038B570B1074C084AB8
:103900004FF400450021E0FB054100232046FCF771
:1039100037FCBDE8384007F019B838BD3F420F000A
:1039200040420F001B39036906291DD8DFE801F06A
:10393000041C0A1C0C1C180019880023C2E900137F
:10394000002070475988F8E79B88094840F24C618D
:10395000C3F309034B43B3FBF0F100FB1133EDE775
:103960009B8800219B0AE9E76FF08500704700BF44
:1039700040420F00F0B54468066985B005462068EE
:1039800006F0D2FE20B96FF01204204605B0F0BD5B
:10399000A06988B104F1180706F0C6FE0028F2D02D
:1039A0004FF4B011384606F099F96868012106F025
:1039B0001BFA012006F0ACF9206968B104F1100788
:1039C00006F0B2FE0028DED038464FF4D01106F0E3
:1039D00085F9012006F09CF9A06898B9142006F03A
:1039E00097F923699BB9A38843492068052206F00B
:1039F0009FF9002818DA6FF004046868002106F0C7
:103A0000F3F9C2E706F090FE0028E7D1BBE704F126
:103A100010070121384606F04DF90F2006F07FFE11
:103A20000021384606F046F9022006F071F96F6869
:103A3000384606F0ACF90028DDDBC10602D46FF091
:103A40001504DAE7020640D520232068A1888DF806
:103A50000E30012300930DF10E020DF10B0306F061
:103A60007AF90028C7DB9DF80B30812BE7D10227BC
:103A7000A188009724238DF80A3020680DF10E03E9
:103A80000DF10A0206F067F90028B4DBBDF80E302C
:103A90005BBAADF80E30C3F30723737241F2010332
:103AA000ADF80C302068A3883A4603A906F040F927
:103AB0000028A0DB10233372686806F068F9041E42
:103AC00099DB14F0010498D0B9E7F4238DF80E3097
:103AD000BB88386801220DF10E0106F029F9002893
:103AE00089DB012006F014F9686806F050F9002817
:103AF00081DB0306A8D4A2E7DEBE0000014B012251
:103B00001A60704700C000400C2903690BD1DB6AC2
:103B1000064907484B4393FBF0F100FB113311605A
:103B20005360002070476FF08500704790D003000D
:103B300040420F00044B00690022C3F80021D3F873
:103B4000003102F0DFBA00BF00C000407FB5056958
:103B50002B6B63B3402901D00C292BD105F118063A
:103B60004FF0FF324FF0FF33304602F003FA134BB1
:103B70000193286B0323002469460394029304F005
:103B8000DFFA4FF0FF324FF0FF33284602F0F4FA2D
:103B9000286B04F02CFB0A4BD3F80825EA620122BB
:103BA0005A60304602F05EFA204604B070BD6FF0F5
:103BB0000A00FAE76FF08500F7E700BFFD3A000062
:103BC00000C0004010B504690020FFF77FFA2063B1
:103BD0004FF0FF320021204606F0F3FD04F11800FB
:103BE00006F0E8FD002201210C20FEF799FC0C20D4
:103BF000FEF77AFC024B0122C3F80423002010BD1B
:103C000000C0004030B50D29006920D1C488B0F94A
:103C10000E500389B0F902101B1B491B4B43B0F92E
:103C20001010491B93FBF1F32344002B1946B8BF36
:103C3000D91D584200F0070003F0070358BF434264
:103C40001248C9104343C2E90013002030BD1029B7
:103C500019D10479B0F90A504379B0F900101B1B4F
:103C6000491B4B43B0F90C100948491B93FBF1F376
:103C7000234403EBD371002B03F001034FEA6101EE
:103C8000B8BF5B42DEE76FF08500DFE748E8010080
:103C900020A1070070B5032904691CD80F4B5856A2
:103CA0000F4B5E560F49B04202F1080201DD0020C1
:103CB00070BD031D04EB43032569B3F901301B11EB
:103CC0006B4393FBF1F501FB153342F8085C42F8B6
:103CD000043C0130E7E76FF08500E9E709BF000029
:103CE00005BF000040420F00F0B546680569336823
:103CF00085B00446984700282EDB6B680DF107025B
:103D00009B680F2120469847002825DB9DF8073047
:103D1000332B3FD1327BD7070BD5204B44F61611FE
:103D200042F28B40C3E900011D4949F22D26C3E947
:103D30000261930712D40026CDF809608DF80D605A
:103D400007238DF808306B6802AA5F6820210623DC
:103D50002046B84700280BDA05B0F0BD6B681E6935
:103D600080231A461E212046B0470028E3DAF3E7F5
:103D70000A4B1B682B616B683246DB6823212046A7
:103D800098470028E8DB6B684722DB682021204643
:103D90009847E1E76FF01500DEE700BF140600204A
:103DA00094B6010010B543680469586806F0BCFC7D
:103DB00018B1034B6360002010BD6FF01200FBE7E9
:103DC00064BA000030B50E29036911D11968114C8D
:103DD0000B130A25C1F30B0193FBF5F005FB103320
:103DE0006143634303EB1133C2E90003002030BD9C
:103DF0000D290CD1B3F90430642493FBF4F104FBD6
:103E0000113308B242F2107113FB01F3ECE76FF0CB
:103E10008500ECE7A0860100F7B51F294468036917
:103E200015463AD1A27A1B8C12F02001627918BF94
:103E30001BB2002A31D0E279277C042A09BF22680C
:103E4000E2899268128909B1013FFFB25A43A07911
:103E5000019201A9FEF7E8FD0646D8B9019941FA99
:103E600007F067694FB14FEAE07CA0FB0701A26948
:103E7000334607FB0C11FCF733F94FF47A7303FB5D
:103E800000F190FBF3F2064B2A6091FBF3F203FB87
:103E900012116960304603B0F0BD6FF08506F9E796
:103EA00040420F002DE9F84F066947686FF00102A4
:103EB0004FF0FF33C6E906230546386806F034FCA8
:103EC00020B96FF012042046BDE8F88FF86908BBEE
:103ED000384606F01DFA04460028F4D17B79002B01
:103EE00000F08A803A790123934073603B7C3374FD
:103EF0007B7C737406F12003B3600223F3606B686C
:103F0000D86960B9D5F804A0DAF81C0050BB04EAFF
:103F1000E474D8E706F008FC0028D9D1D1E793F87B
:103F200020105B8CD0F810C0D0F808E0DCF80060FE
:103F3000DA0754BF43F4B01383F4D013012723F4FA
:103F400080128F40DB074CBF3E43BE43CCF800607D
:103F5000DEF8003098470028D4DA10F1860FD1D06F
:103F60000446B0E79AF820302F690121994003698F
:103F70001B681942836814BF1B69DB6898470446B5
:103F800006F05EFDDFF878901E4A06464FF0000806
:103F9000DAF824000D464FF4004BCC464146E0FBD6
:103FA0000BC100236046FCF7EBF8801945EB0105D7
:103FB000012875F100051ADB06F042FD0646DAF825
:103FC0002400104A0D464146E0FB0B910023484671
:103FD000FCF7D6F86FF00103801945EB01014FF0B3
:103FE000FF321B1A62EB0101C7E906318FE76FF060
:103FF00001034FF0FF31F7E76FF0850463E700BF7F
:104000003F420F0040420F002DE9F041044647684F
:104010000D4606F0E6FB4FF0200888B9264B1B78CA
:1040200073B16426606806F0B1F9F0B9012006F0BA
:10403000FDF9013EF6D10021212006F087FCF0E7D2
:10404000EFF31186314688F31288BFF36F8F6068F3
:1040500006F09CF9A8B986F31188BFF36F8FEFE7DC
:1040600086F31188BFF36F8FE5E7EFF311863146D2
:1040700088F31288BFF36F8F606806F087F9002815
:10408000EED0BB691D706368BA691B680020C3F875
:1040900044250122C3F84825C3F82001D3F8204164
:1040A000C3F85801D3F858019A6081F31188BFF31F
:1040B0006F8FBDE8F08100BF2A1A0020F7B50546D2
:1040C000002201210220FEF72BFA0220FEF70CFA53
:1040D0006B6819681A69C1F824255A7D1B7D134342
:1040E000C1F86C356E68D6E9004313F0010348D07F
:1040F0002F6907F1080006F0A5F9304B98425AD114
:10410000387A04F10C0204F5907106F091F9387ACE
:10411000012707FA00F000F0D1FB0823C4F80035AE
:10412000B369C4F844350023C4F84835A760D4F80F
:104130005831002BFBD00021C4F800156B68DC68F7
:1041400001AA204605F047FC002805DB019B2268F8
:1041500019791868FFF744FB6A6813680821C3F8E7
:104160000015117A51B9D269C3F834250122C3F878
:104170003825C3F81011D3F810111A60002003B0CD
:10418000F0BD0822C4F80025B269C4F84425C4F87B
:1041900048350123A360D4F82031002BFBD0002345
:1041A000C4F82031D4F820310123E3604FF4807348
:1041B000C4F80433BBE76FF00400E0E70000AD0B88
:1041C00070B5012383400E4ABFF35B8FDC4352E896
:1041D000001F01EA040542E80056002EF7D1BFF3A4
:1041E0005B8F4FF4803282400648C0F80823BFF34B
:1041F0005F8FBFF36F8F0B4214BF0120002070BD93
:10420000381500200010014070B40E49D1E9003487
:10421000D01AC31844F1000422F07F46C1E90034EB
:10422000A6F50013B3F5400F09D2074B1B681A0A15
:104230001B069C19054B42F10005C3E9004570BC03
:1042400002F0BABDD00C00203C150020D80C002094
:1042500011B3BFF35B8F0123104A834052E800CFB4
:104260004CEA030C42E800C10029F7D1BFF35B8F91
:104270000B4A4FF480338340C2F80433094BBFF339
:104280005B8F1B68BFF35B8FC340DB0742BF064BEE
:104290004FF40032C3F80021704700BF38150020EA
:1042A000001001403415002000E100E00D4B1868BB
:1042B000010A0006BFF35F8F0B4BD3F804351818C3
:1042C00041F10001B3F5801F0AD2084BD3E9002366
:1042D000904271EB030303D210F1807041F10001B1
:1042E000704700BF3C15002000100140D80C002092
:1042F0002DE9F04F85B016461F469DF840A00446B4
:10430000FFF75EFF0190FFF7D1FFB04271EB0703AB
:1043100054D23E4B301A67EB0101984271F1000113
:104320004FD23B4B03EB0413D3E902239F4208BF58
:1043300096425ED037494FF4803804F1500508FAB0
:1043400004F8AD00C1F848832046ADB206F04FF83E
:1043500026F07F4B05F1804504F5A87305F58835F7
:10436000DC464FF003090293029A2CF07F4341F898
:104370002230C1F84483D1F80435274A6FF0020097
:10438000C01A604420F07F40904232D9286868B15A
:10439000D1F804350393A3EB0B0020F07F40B0F578
:1043A000000F26D9204606F022F8039BBAF1000F31
:1043B00007D109EB030C09F10109D5E7BAF1000FA8
:1043C00009D06FF0150520460199FFF741FF2846F7
:1043D00005B0BDE8F08F0123104ABFF35B8FA34007
:1043E00052E8000F184342E800010029F8D1BFF35A
:1043F0005B8F07490E98230101EB0412C8500F9BF5
:104400005360C2E902670025DDE700BF01008000BC
:10441000C00C002000100140FDFF7F00341500207B
:104420007FB51C4C1C4BC4F80833C4F848331B4BF5
:1044300000254FF0FF304FF0FF31C4F80855C3E9B5
:1044400002014FF48033C4F80433154B02264FF4B5
:1044500000320121C4F804631120C3F880212A46E8
:10446000FEF75EF81120FEF73FF80E4A0123A36025
:10447000236013600C4B0D4A0093CDE901550023D6
:104480002846FFF735FF3046FEF728FE284604B0E1
:1044900070BD00BF0010014003000F00C00C0020E1
:1044A00000E100E03815002009420000FFFF7F0016
:1044B0002DE9F7432F4CD4F8043399070BD5D4F8E2
:1044C000043143B12C4A0023C4F80431D4F8043138
:1044D000136801331360D4F80433DA0329D5BFF32A
:1044E0005B8F264B53E8002F22F0010143E80010B8
:1044F0000028F7D1BFF35B8FD30702D4D4F8403143
:10450000BBB10025C4F84051D4F84031FFF7CEFECE
:10451000EFF31182202383F31288BFF36F8F184BC0
:10452000D3E90267B042B94106D282F31188BFF3E2
:104530006F8F03B0BDE8F0834FF0FF384FF0FF39C5
:10454000C3E90289D3E900101D604FF48033C4F839
:104550004833C4F84051D4F8403182F31188BFF396
:104560006F8F0029E5D0009032463B4628468847A9
:10457000DFE700BF001001403C150020341500208B
:10458000C00C002030B5431C124C85B005D08442CD
:10459000A8BF0446012CB8BF0124FFF787FE0E4BCD
:1045A0000C4DD3E90013401AB0F5000F10D22218B9
:1045B000AA4228BF2A4652184FF00000074900912E
:1045C000CDE9010043F10003FFF792FE05B030BDD5
:1045D0002A46F0E7FFFF7F00D00C002009420000D0
:1045E00008B5FFF763FE024B1B68C01A08BD00BF89
:1045F000D00C00204FF0704393F8E02F062A09D129
:10460000D3F8E83FC3F30313033B042B02D8024A59
:10461000D05C7047002070474DBF000008B505F022
:10462000F6FE40B14FF08053784AD3F82433C3F3F9
:104630000423C2F84035FFF7DDFF10B1744B754A13
:104640005A6705F0E4FE48B14FF080534FF08042C6
:10465000D3F84432C3F34233C2F83C35FFF7CAFF04
:1046600030B16D4AD2F8FC3023F08073C2F8FC30D0
:1046700005F0CDFE40B14FF080430022C3F80C217D
:10468000C3F81021C3F83825FFF7B4FF20B14FF06D
:1046900080430322C3F8A025FFF7ACFF60B15F4B56
:1046A0000522C3F810260122C3F888260022C3F889
:1046B00018263F22C3F814264FF08053D3F8302138
:1046C000511C09BF4FF07043D3F8343193F8E02FF9
:1046D000D3F8E83F08BFC3F30313062A4DD1033BC9
:1046E000042B03D84E4AD35C002B46D04FF08052A7
:1046F0004C4BD2F80414C3F82015D2F80814C3F8B0
:104700002415D2F80C14C3F82815D2F81014C3F8E5
:104710002C15D2F81414C3F83015D2F81814C3F8B5
:104720003415D2F81C14C3F84015D2F82014C3F87D
:104730004415D2F82414C3F84815D2F82814C3F845
:104740004C15D2F82C14C3F85015D2F83014C3F815
:104750005415D2F83414C3F86015D2F83814C3F8DD
:104760006415D2F83C14C3F86815D2F84014C3F8A5
:104770006C15D2F84424C3F8702505F048FE48B102
:104780004FF080534FF08042D3F8583203F04F037C
:10479000C2F8E43E05F03BFE48B14FF08043D3F849
:1047A0000024D20744BF6FF00102C3F800244FF089
:1047B0008053D3F83021062A26D1D3F83431033B75
:1047C000042B02D8184AD35C63B1184AD2F83C379C
:1047D00043F48063C2F83C374FF08053D3F8303154
:1047E000062B11D14FF08053D3F83431033B042B07
:1047F00002D80F4AD35C3BB14FF01023D3F8082204
:104800004FF08043C3F8582508BD00BF0030014079
:1048100000C007400DF0ADBA00ED00E000500040D0
:1048200048BF000000C0004043BF0000001000402F
:104830003EBF000030B50468CCB1BFF35B8FB4FA63
:1048400084F3C3F11F03DBB201229A4024EA02027F
:1048500050E8005FA54204D140E8002CBCF1000FF5
:10486000F6D1BFF35B8FE6D102480B7030BD024832
:10487000FCE700BF0000AD0B0200AD0B10B50368F4
:10488000CB40DB0714D401238B400268BFF35B8F5E
:1048900043EA020150E8004F944204D140E8001C72
:1048A000BCF1000FF6D1BFF35B8FEED1014810BD14
:1048B0000148FCE70000AD0B0400AD0B014BC3F851
:1048C0000405704700F00140F7B50546F8B101282E
:1048D0001BD104224FF4807301464FF08040034403
:1048E0000244C0F808130026012111601E608D42A9
:1048F0001B688DF8071008BF0DF1070642F210740F
:104900004FF0804745B1012D28D003B0F0BD0C22F7
:104910004FF482730221E0E7D7F8183403F48033B0
:104920003EB9002BF1D0012005F080FD013CF3D110
:10493000EBE7D7F8182402F003023260002BE4D032
:104940009DF80700012803D105F070FD013CD9D185
:10495000012DDAD10C4B00225A71D6E7D7F80C346E
:1049600003F480333EB9002BF4D0012005F05EFD46
:10497000013CF3D1EEE7D7F80C2402F001023270CB
:10498000002BDDD1E6E700BF40150020044B1A796B
:1049900022B9012218609A80024870470248704785
:1049A000401500200000AD0B0C00AD0B08B5074B07
:1049B0001B682BB10020FDF7A5FD08B9FDF794FD9C
:1049C0004FF080430022C3F8182508BD4015002091
:1049D00038B5B0B1012855D14FF080420023C2F85C
:1049E0000031D2F80021304A03F1804301211960DF
:1049F0002E4B1B68002B50D04FF08043C3F80403AC
:104A000040E04FF08043D3F81814D3F81824C803BB
:104A10002AD502F00303012B04D013B10020FFF7C5
:104A200053FF00234FF08042C2F818350023C2F82C
:104A30000431D2F804311E4AD2F8FC0040F08073F1
:104A4000C2F8FC301B4B1C6844F0010119605D6822
:104A50005968491BB1F50A5FFAD31C60C2F8FC0023
:104A60000823154A0220BFE7D3F81424D107D8D56C
:104A7000D3F81C249207D1D40C4A12681AB102222E
:104A8000C3F8042338BDD3F80421002AFBD0002248
:104A9000C3F80421D3F80431F4E71368002BFCD0E9
:104AA000002313601368EDE700010040401500206B
:104AB00000ED00E0001000E00401004010B54FF0F0
:104AC0008043D3F800216AB10022C3F80021D3F853
:104AD00000210122C3F80823114B587910B95A71EB
:104AE0001B6898474FF08043D3F8042172B100222D
:104AF000C3F80421D3F80421D3F81824D3F81824D8
:104B0000920704D10122C3F818259A6010BD022231
:104B1000C3F80823024BBDE810401B68012018476A
:104B20004015002070B500F108030C4C34F8133028
:104B3000DA0505460E4607D5C3F3432304EBC3024B
:104B400054F8333052689847A3682BB1E268314675
:104B50002846BDE87040184770BD00BF24060020FD
:104B600010B4C0B2114A083032F81030D9051BD544
:104B7000C3F3432123F4F85322F8103002F10E045A
:104B8000002034F8023F13F4807F03D0C3F34323A3
:104B9000994209D001302028F3D1002342F8313066
:104BA000034810BCFFF76ABE10BC70472406002003
:104BB0007C060020F0B50546002004460126074685
:104BC0008C420BD1114BD3F87C2132B10022C3F8B7
:104BD0007C21D3F87C3140F00040F0BDE3B29B0073
:104BE00003F580729B0806FA03F31D420BD002F115
:104BF000804202F5C042D2F800C0BCF1000F02D0E2
:104C00001760126818430134DAE700BF0060004003
:104C1000CBB20246083308460C4931F813309906E6
:104C200011D599070FD410685B0B01219940C0F88A
:104C30000813126802EB8303D3F8102522F0030255
:104C4000C3F810257047002105F053BC240600204E
:104C5000F7B5CDB2174E0835074636F81530DB07E5
:104C60000C4624D5FFF7D4FF36F815309A0606D542
:104C70005B0B3A6803F5A273002142F8231020462B
:104C8000FFF76EFF002301A826F81530019405F008
:104C9000DDFB019B00EB8300074BD0F8002713409E
:104CA00043F00203C0F80037044803B0F0BD0448E5
:104CB000FBE700BF24060020F0F8FCFF0000AD0B6E
:104CC0000400AD0B2DE9FF41136807460C4615465D
:104CD000FBB1CEB2DFF83C81083638F8162002F07E
:104CE0002202222A22D00022CDE900228DF80E20B5
:104CF0008DF80F200DF10E010DF10F02204605F089
:104D0000AFFB38F8163023F0020343F0010328F814
:104D100016306B684BB393F800C05A683D4EE3B24F
:104D2000083336F81310880702D5B2B13A481FE0AD
:104D300021F02001C904C90C26F813106AB1BCF196
:104D4000030FF3D86A68386852681278BCF1000F14
:104D500011D102F5A27240F822C036F8132022F0D9
:104D60001C0242EA8C0226F81320AB6843BB2B4896
:104D700004B0BDE8F08100EB820041EA4231D0F896
:104D800010E52EF0030EC0F810E53F6807EB820730
:104D900041F02001D7F8100526F8131020F4473011
:104DA00020F44070C7F810052002D7F810E500F491
:104DB000F85040EA0C4040EA0E00C7F81005CCE776
:104DC000D3E900672046FFF7CBFE002ECFD0114D70
:104DD000D5E90023964203D19F4201D1002209E088
:104DE0000F480DF10F01FFF725FD0C4B9842BFD185
:104DF0009DF80F2045F83260E4B205EBC203083499
:104E00005F6035F8143043EA422343F4807325F899
:104E10001430ACE7240600200400AD0B0000AD0BFD
:104E20007C0600202DE9FF4107460C461E4612B3C2
:104E3000CDB2DFF8D080083538F81530980701D4A6
:104E4000990621D413F01C0F02D05378012B1BD0EC
:104E500001238DF80F300023CDE900230DF10F0160
:104E6000931C2046013205F0FBFA38F8153043F068
:104E7000030328F81530002E42D0E1B2214D08314D
:104E800035F81120930703D41F4804B0BDE8F08122
:104E900096F800E0D7F800C022F020020EF5A270CC
:104EA000D2040023D20C4CF8203025F8112096F8BB
:104EB00001C0BCF1000F23D03868B67800EB8E003B
:104EC0004FEA0C4CD0F8103523F4981323F4F85320
:104ED000C0F81035230203F4F8530CF4403C3605B7
:104EE000D0F8107543EA0C0306F4801642EA4E32FD
:104EF000334342F020023B4325F81120C0F810351F
:104F00000248C2E7240600200400AD0B0000AD0BF0
:104F1000014BC3E90212704724060020C9B20831D0
:104F2000044B33F81130990643BF5B0B02481370F2
:104F300002487047240600200000AD0B0400AD0BB2
:104F400070B5164D95F8604006462CBB21464022B0
:104F500005F1100005F0EAFF30682E6D21468E4203
:104F60000ED10023C0F87C31D0F87C3140F30730FB
:104F7000FDF7BAFA01230A4885F86030AB6570BDC9
:104F8000CBB29B0003F580727C2B08BF845001F1EB
:104F9000010108BF8358E2E70248F0E72406002039
:104FA0000000AD0B0C00AD0B034B93F86000003814
:104FB00018BF0120704700BF240600200148FFF7FA
:104FC0005DBC00BF780600200148FFF733BC00BF7E
:104FD0007806002073B503680C46D3F80413002943
:104FE000A4BF4FF00041C3F80413E3B21D490833D6
:104FF00031F8133099061AD513F0020617D15B0B5E
:105000009C00056804F580716E5069580168214460
:10501000D1F8104544F00104C1F810452AB10168E7
:10502000012202FA03F3C1F8043302B070BDC3F3E6
:105030008203042B12D0052B12D001A8019405F095
:1050400005FA019AD0F81035D34003F00103991CFA
:10505000204602B0BDE8704005F04BBA0321F7E7E7
:105060000221F5E7240600202DE9F347544B554F64
:10507000D3F80403396DC0B240F00040FFF79AFD49
:10508000051E18DA0023F96D0093684605F040FA12
:105090004FF0010897F85C30DA075AD4396D4FF0B9
:1050A0000040FFF787FDF96D684605F031FA0028EA
:1050B000F0D125F000450124002D69D102B0BDE8F2
:1050C000F08794FAA4F4B4FA84F4E00804F1080335
:1050D00004F0070237F813901DF80030019408FA25
:1050E00002F223EA02030DF8003001A805F0AEF940
:1050F000019B03F5E0734FEA990150F82360C9F36F
:10510000820A4B07D146C6F3014626D520465146B2
:10511000FFF708FD01A8019405F098F9019B03F53C
:10512000E073F6B250F82330C3F301439E4207D137
:105130000021204605F0DDF93146204605F0D9F979
:1051400001A8019405F082F9019B08FA03F3C0F865
:105150002035009C002CB4D1A0E7022E0CD10321F5
:10516000204605F0C6F90AF00503012BE8D14946AF
:105170002046FFF7D7FCE3E70221204605F0B9F906
:10518000BAF1030FF3D0032EDAD1BAF1020FEDE733
:1051900095FAA5F3B3FA83F304FA03F29B0003F143
:1051A000804303F5C04325EA0205D3F81005D3F880
:1051B0001015C0F30420C1F30141FFF7B3FC7BE7F6
:1051C000006000402406002001460148FFF732BB82
:1051D0008806002010B4CC7B8A6803682CB9D1E91A
:1051E0000041C3F80845C3F80C15C3F8242503791A
:1051F0002C225343054AD3582BB1006810BC40F30E
:105200000730FDF771B910BC704700BF481500208A
:1052100030B5847BF4B9016801F01F0349091BD143
:105220009B0003F1A043114DD3F8002740F20C641A
:105230002A402243C3F80027426802F01F035209A4
:105240000FD19B0003F1A043D3F800272A4022434B
:10525000C3F80027012030BD03F5E07354F8233074
:10526000FFDE03F5E07351F82330F9E7F0F8FCFFB7
:1052700070B50D4686B04FF48011044605F09CF9D8
:1052800008B34FF48013C4F80833D4F82435D3B9E5
:10529000C4F800350623C4F80035AB6AC4F82435D9
:1052A000EB6913F0010318BF0123C4F85035EB6913
:1052B000012213F0020314BFC4F84025C4F840359E
:1052C000A26006B070BD0221204605F075F94FF4CA
:1052D00000710646204605F06FF9C8B1D6B9AB6833
:1052E000C4F808330223AB60AB68C4F804334FF052
:1052F0008071204605F060F918B1D4F800329B05A2
:1053000002D4012323626361012385F82330D8E7A7
:10531000002E67D0EB695E060AD495F823303BB9BE
:105320002946204605F006F980F0010085F82300A3
:10533000EB6913F0040324D1C4F86031D4F8602180
:10534000C4F85C31D4F85C3195F825301BB195F880
:105350002330002B52D00023C4F80032AB60394B0D
:10536000C4F8083344F30733002B47DB5A09012103
:1053700003F01F03994002F16003334A42F82310FF
:105380003CE095F82030012B0AD00023C4F85035BA
:10539000C4F84035C4F824354FF48013C4F80433FE
:1053A000D4F8C434C4F8C434980745D4590745D454
:1053B000DA0745D495F823309B00DBB28DF8003036
:1053C00095F825300BB985F82430EB695B0704D5D7
:1053D00095F82330002B3FF474AFD5E900316846CF
:1053E00098476EE74FF48021204605F0E5F895F8E0
:1053F00020307BB995F82530002BADD02B8CADF843
:105400000430EB6804932B6902936B690593AB69D5
:105410000393C5E74FF40073C4F8003240F202234F
:10542000AB6003F1CE73C4F80833AB68C4F804333F
:105430000123A360236244E70123BFE70223BDE702
:105440000323BBE702029C0100E100E02DE9F041EB
:1054500090F80480174E07462C2000FB08F0351802
:105460000C4695F8221001BBA96032506B6085F89C
:10547000251085F824107CB1A37B85F827302046C1
:10548000FFF7C6FE98B1637B85F82630A368AB6250
:1054900021463846FFF79EFE2C2303FB086606488C
:1054A000012386F82230BDE8F0810448FBE7044878
:1054B000F9E700BF481500200000AD0B0C00AD0B54
:1054C0000400AD0B036802790621C3F80015044BF4
:1054D0002C2101FB0233022283F82220704700BFF7
:1054E0004815002010B51D4A04792C2303FB042322
:1054F0000021996001681A4BC1F80833D1F80032D5
:1055000023F4BC53C1F800324FF08053D3F830017C
:10551000B0F1FF3F09BF4FF07043D3F8343193F837
:10552000E00FD3F8E83F08BFC3F30313062808D100
:10553000033B042B02D80B48C35C13B10923C1F809
:1055400000352C2303FB042300200122C1F80005B1
:1055500083F8222083F8240010BD00BF48150020E6
:1055600002029C0152BF00002DE9F74FB94D90F89F
:10557000049004682C2303FB09539046002283F80F
:1055800023204B680E4633B1CB6803F06043B3F180
:10559000005F40F0A2813378023B012B06D83369CB
:1055A00003F06043B3F1005F40F09781AA4BC4F869
:1055B00008332C2303FB095393F8241001F0FF0256
:1055C00041B19B68DFF894B2C4F80433584603B085
:1055D000BDE8F08F18F0140F0CBF0121002183F8F3
:1055E0002410317883F82010717883F82110F16845
:1055F000D9607168196131695961B1689961C8F3FD
:10560000001183F82510C3F81C807378C4F888351E
:10561000C4F86021D4F86031C4F84821D4F8483186
:10562000C4F82421D4F82431C4F80421D4F8043176
:1056300018F0010318BF0123C4F8503518F0020315
:1056400018BF0123C4F8403533782C2709FB0757CE
:10565000032B00F2BC80DFE803F092B17B024FF431
:105660008073C4F80032D7E90323C4F84425C4F892
:1056700048350123A3604FF48011204604F09CFFBD
:105680000028F8D1D7E90523C4F84425C4F84835E3
:105690002C2303FB09534FF480229A60DFF8C0B13A
:1056A0002C2202FB09F218F00803A858019305EB1D
:1056B000020114D13278032A11D0012A40F09D80D2
:1056C0002260002800F086802C2202FB09F271681B
:1056D000AA5821B9002A00F0D680012262612C224A
:1056E00002FB09F2A918AA58002A00F0CC8018F091
:1056F000040F1CBF00228A6018F0400F06D12C2234
:1057000002FB0952916841F0020191602C2202FBD8
:105710000952019B916841F4007191609268C4F84C
:105720000423002B00F0A8803278012A00F0A48026
:105730000022C4F85025C4F84025C4F82425C4F834
:105740005021D4F850214FF48012C4F804233DE7CF
:10575000D7E90323C4F84425C4F84835D7E905231D
:10576000C4F83425C4F838354FF48453C4F80032F3
:10577000012323622C2303FB095302228DE7D7E97F
:10578000032318F0200FC4F84425C4F848354FF01F
:105790002C0315BF4FF480724FF4007203FB0953C2
:1057A00003FB095315BFC4F80022C4F800224FF4CC
:1057B000802202229A60012323626FE7D7E9032344
:1057C000C4F83425C4F838354FF48053CEE7DFF8F9
:1057D00094B065E7096901B962612349DFF88CA0DB
:1057E000204604F0E9FE012310F4007F18BF636136
:1057F00010EA0A0F1C49F3D066E70122A2600028D4
:105800007FF462AF0969A9B34FF0000A174B1AEA97
:10581000030F7FF459AF1449204604F0CDFE10F475
:10582000007F8246F2D04FF08071204604F0C4FE23
:10583000D4F80012E0B111F4007003D10122226209
:1058400082466261CB05E1D54FF48021204604F009
:10585000B3FED9E74815002002029C010B00AD0BF6
:105860000000AD0B0400AD0B0202040002000400B6
:10587000012222626261C7E72C2202FB0952926A6E
:10588000C4F82425A2E62C21D4F8C424C4F8C424E6
:1058900001FB0955002185F824108AB11049114BEC
:1058A00012F0010F14BF8B469B46013112F0020F1C
:1058B00018BF8B4612F0040F0B4A18BF934685E6BB
:1058C00018F0400F7FF482AE3946204604F032FED5
:1058D000044A002808BF934678E6DFF810B075E662
:1058E0000000AE0B0100AD0B0200AE0B0A00AD0BC9
:1058F00001490248FFF7BCBC4815002000300040B9
:1059000002494FF04020FFF7B3BC00BF74150020E0
:10591000F7B5064604F084FE084604F081FE01A8AF
:10592000019604F073FE019B2E4D00EB83000C46A4
:10593000D0F80037019440F20D612B400B43C0F8C2
:10594000003701A804F062FE019B00EB83000127F1
:10595000D0F800372B400B43C0F80037042004F088
:1059600065FD092501A8019404F050FE019AD0F8C4
:105970001035D340DB0715D401A8019604F046FE8C
:10598000019B07FA03F3C0F80C35042004F04EFD28
:10599000304604F045FE013D042004F047FD15F0BB
:1059A000FF05DFD101A8019404F030FE019A012324
:1059B0009340C0F80C35042004F038FD204604F074
:1059C0002FFE042004F032FD01A8019404F01EFE15
:1059D000019AD0F810350448D34003F00103C01AEF
:1059E00003B0F0BDF0F8FCFF0100AD0B08B5124BA1
:1059F000A8220021184605F099FA032202610F49F6
:105A000042610F4A8161C2614FF4806202620022EA
:105A100082624262C26201660A4941661021816661
:105A2000094902670346C266426711F8010D98549E
:105A30000132102AF9D108BD1004002057BF000020
:105A4000100000200000002070BF00002DE9F84F7A
:105A5000DFF8808098F80030532B8246894616463E
:105A600001D0FFF7C3FF182707FB0A873D6FD7F860
:105A70006CB05D452BD9BC6E796E641BB44228BFF7
:105A8000344629444846224605F028FABB6E254490
:105A9000A144361BAB4208BF0025ABEB050B5E45AE
:105AA00028BF5E4656B1182303FB0A833246596E5F
:105AB0004846294405F012FA3444354424B11823E9
:105AC00003FB0A88C8F870502046BDE8F88F002410
:105AD000E3E700BF100400202DE9F84FDFF87C80D9
